:400000000010002011000000A9020000A902000010B500F051F9C04670B5194C23688022D20213432360182000F0CAF92268154B13402360144A154B1A601022144B1A60D2
:400040002032144B1A60103A134B1A6080221206124B1A6000252560114A124B1A60124A124B1A60124A134B1A601349092000F073F9092000F064F9104B1D6070BDC046FD
:4000800000010B40FFFFFBFF0600008004010B400C020240200202402C02024008010B40CF00008000000240EF000080400002405702008080000240D10500000C020B4062
:4000C00010B572B600240FE024486200131959000B00411889881A5AC31858880004104300F0DCF80134E4B2012CEDD91B4801000C31143000F0B8F899231B04184A1360FB
:4001000080210901174A1160EE210902164A1160164A1360164A1360164A1360164A174B1A60174A117806230B43DBB213702023144A1360C4218902134A1160134A13600F
:400140000522134B1A607E32FF32124B1A60D8221201114B1A60FFF75FFF10BDF00B000000000140040001400C00014000500F4010500F4030500F40A0A00A002001054029
:4001800000700F4000000440080004401800044000010440080104400803044010B5064C2378002B07D1054B002B02D0044800E000BF0123237010BD4001002000000000E1
:4001C000D80B0000084B10B5002B03D00749084800E000BF07480368002B00D110BD064B002BFBD09847F9E70000000044010020D80B0000C00000200000000000B583B02E
:4002000062B600F04BFA00F02DFB00F095FBFF2000F0CCFA7F2000F0D1FA00F033FB0128FBD100F04DFB642100F0B6FB00B20B4B18800A2201A900F07EFC094800F0A2FA7C
:4002400001A800F09FFA074800F09CFA002000F02FFBFA20400000F091F8DEE75C010020DC0B0000EC0B0000F0B50025002711E0BB00C658F3B2FF22964308E06A008A18FC
:400280001478A419527822700135013BDBB2002BF4D10137002FEBD0F0BDC04610B50A00002100F04CFC10BD10B500F001FC03680C2B00D1FEE7FEE770B50F4E0F4D13E020
:4002C00029686B68AC68002202E001C901C30432A242FAD1E868002202E0002102C304328242FAD11035013E002EE9D100F0E6FBFFF784FFFEE7C04601000000840C0000DE
:4003000010B500230AE0032B03D89A000949505800E009489900094A885001332F2BF2D9FFF7CEFE8022D205116801230B43136010BDC04600000000A902000000000020C9
:400340001F2318401E3B8340014A13607047C04600E100E001BE704770B504000D001F2802D90020FFF7F6FF1034A40080239B059C4664442068256070BDC04610B50400F4
:4003800006E0084B586800F0E7FA074B9C46644480231B029C42F4D8024B9868604300F0DBFA10BDC40000200080FFFF10B5034B1B7B584300F0D0FA10BDC046C400002094
:4003C000F0B557464E46C0B483B0040000F0CEFA0190E71E2D2F74D83F4B1B78DBB29C4208D83E4B1B78DBB29A463D4B1B78DBB2994631E03B4B1B78DBB29C4208D83A4B14
:400400001B78DBB29A46394B1B78DBB2994623E0374B1B78DBB29C4208D8364B1B78DBB29A46354B1B78DBB2994615E0334B1B78DBB29C4208D8324B1B78DBB29A46314B8C
:400440001B78DBB2994607E02F4B1B78DBB29A462E4B1B78DBB299462D4BDE5D2F2E09D92A2C07D919222B4B1A60052000F074FA192503E0274B1D683F231D40B54206D921
:40048000234BDA5D234B1A60052000F065FA1F4B9C4664442378DBB21F4A13601F4B52461A601F4B4A461A600520FFF77FFFB5420AD2174BDA5D174B1A60052000F04CFA17
:4004C00002E00020FFF746FF019800F053FA03B00CBC91469A46F0BDC0F1FF0FC1F1FF0FC2F1FF0FC3F1FF0FC4F1FF0FC5F1FF0FC6F1FF0FC7F1FF0FC8F1FF0FC9F1FF0F67
:40050000CAF1FF0FCBF1FF0FCCF1FF0FCDF1FF0F080C00002CFF0B4028FF0B401CFF0B4020FF0B40034B1868C0231B02184000D00120704700010B4010B500F017FA044A97
:400540001368C02109020B43136000F013FA10BD00010B4010B500F009FA08490A68084B1A408024E40122430A600A6813408022120213430B6000F0FDF910BD00010B4082
:40058000FF3FFFFF70B5050000F0F0F90400FFF7C9FF002803D0FFF7DDFF012100E0002108482840084A1568084B2B40184310601368012901D1FFF7BFFF200000F0DAF92C
:4005C00070BDC0460404040010020B40FBFBFBFF10B5244B1B685B0715D5234B1B685B070ED5224BD969042001401F4C22688A432260DA698243DA611B69002B00D098473D
:400600000420FFF7BFFF174B1B685B0518D5164B1B685B0510D5154BD9698022D2001140114802688A430260D969114A0A40DA615B69002B00D098478020C000FFF7A2FF77
:40064000084B1B685B030CD5074B1B685B0304D5064B9B69002B00D098478020C002FFF791FF10BD10020B40D800002060010020FFFBFFFF10B500F06FF810BD10B500F009
:400680001DF810BD10B5044A1368802109060B431360FFF7EFFF10BD0000074010B5064B1B78002B04D1FFF7E9FF0122024B1A70FFF7E8FF10BDC04680010020134A144BD3
:4006C0001A600023134A13601349144A1160144A14490A6007201449086014490B6006381349086013490A60134A1360134A1360134A1360134A1360134A1360134A1360E1
:40070000134A13601268134B1A8070470B000002000007404000074001000A004800074007000080000307400403074010030740440007400002074004020740880E0740D4
:40074000C80E0740480F0740080F0740C80F0740880F074082010020064A1168064B0B40902109040B431360044B1A88044B1A607047C04600000140FFFF0FFF8201002076
:40078000880F074070B50500002402E000F0F6F80134285D0028F9D170BDC0460004000C014B18607047C046C80105400004000C014B18607047C046D40105400004000C14
:4007C000014B18607047C046CC01054070B504000D0000F0CBF8AC40024B1C6000F0CAF870BDC0460800054010B500F0BFF8064A116808230B43136000F0BCF81821082070
:40080000FFF7E4FF10BDC04600000540014B18607047C046F801054010B50E4C8023DB042360236823600020FFF7B8FF236823600C22094B1A600120FFF7E8FF3122074B5C
:400840001A60074C2000FFF7B1FF2000FFF7B6FF10BDC046C0010540E4010540E8010540FFFF000010B5064B1B78002B04D1FFF7D3FF0122024B1A70FFF7B6FF10BDC04602
:4008800084010020024B1B68012018407047C0460401044010B500F069F8044A116801230B43136000F066F810BDC046000005400004000C014B18607047C046080105403D
:4008C000024B18680004000C7047C046080105400004000C014B18607047C046140105400004000C014B18607047C0460C010540014B18607047C0463801054010B58022DC
:400900009200094B1A60094A094B1A600120FFF7EFFFFA200001FFF7DBFF0648FFF7E0FF0020FFF7C5FF10BD000105405E03000024010540CF07000010B5064B1B78002BC1
:4009400004D1FFF7DBFF0122024B1A70FFF7A2FF10BDC046850100200230800804D0C0460138FDD1C046C046C0467047EFF3108072B6704780F310887047C046044B1B6879
:400980000F221340082BF9D0024B18607047C0460802074040020740002243088B4274D303098B425FD3030A8B4244D3030B8B4228D3030C8B420DD3FF22090212BA030C45
:4009C0008B4202D31212090265D0030B8B4219D300E0090AC30B8B4201D3CB03C01A5241830B8B4201D38B03C01A5241430B8B4201D34B03C01A5241030B8B4201D30B03FC
:400A0000C01A5241C30A8B4201D3CB02C01A5241830A8B4201D38B02C01A5241430A8B4201D34B02C01A5241030A8B4201D30B02C01A5241CDD2C3098B4201D3CB01C01AF7
:400A4000524183098B4201D38B01C01A524143098B4201D34B01C01A524103098B4201D30B01C01A5241C3088B4201D3CB00C01A524183088B4201D38B00C01A52414308DE
:400A80008B4201D34B00C01A5241411A00D20146524110467047FFE701B5002000F006F802BDC0460029F7D076E770477047C046014B18687047C0463C0100200E4B70B535
:400AC00000251E000D4CE41AA410A54204D0AB00F35898470135F8E700F0C2F8084B00251E00084CE41AA410A54204D0AB00F35898470135F8E770BD6C0C00006C0C0000FB
:400B00006C0C0000740C0000931E10B50C00222B02D9002008700DE00A2A06D1002804DA2D2340420B70012100E00021611800F00FF8200010BD10B5FFF7E6FF10BD030040
:400B40008218934202D019700133FAE770470000F0B58FB0170006000C002522184904A800F030F80020BB1E0500222B01D9207023E06B1C0293E31801933000013B39005E
:400B80000393FFF78FFF04AB5B5C039A300013703900FFF701FF061E01D0029DE9E7019B187023001A1B954206DD1A78615D197062550133013DF5E720000FB0F0BDC0462C
:400BC000380C0000002310B59A4203D0CC5CC4540133F9E710BD00000000000041667374616E6420696E20636D3A20000A0D000000300F40000400400F4000040380438084
:400C0000C010D01004410F40030405060708090A0B0C0E0F101112131415161718191B1C1D1E1F2021222325262728292A2B2E2F30313233343543003031323334353637A1
:400C400038396162636465666768696A6B6C6D6E6F707172737475767778797A00000000F8B5C046F8BC08BC9E467047C501000001030000F8B5C046F8BC08BC9E4670478E
:400C80009D010000980C0000C000002080000000480000000000000000000000010000000000E02EC05D00001800000000366E010404040000000000000000000000000055
:400CC0000000000000000000000000000000000000000000360C000000000000000000000000000000000000000000000000000000000000000000000000000000000000B2
:400D00000000000000000000000000000000000000000000DC00002000000000000000000000000000000000000000000000000000000000000000000000000000000000B7
:400D40000000000000000000000000000000000000000000000000000000000000000000000000000000000000000000000000000000000000000000000000000000000073
:400D80000000000000000000000000000000000000000000000000000000000000000000000000000000000000000000000000000000000000000000000000000000000033
:400DC00000000000000000000000000000000000000000000000000000000000000000000000000000000000000000000000000000000000000000000000000000000000F3
:400E000000000000000000000000000000000000000000000000000000000000000000000000000000000000000000000000000000000000000000000000000000000000B2
:0200000490303A
:020000002BCC07
:0200000490402A
:200000000000000000000000000000000000000000000000000000000000000000000000E0
:0200000490501A
:0C000000000204C81193110104CC3D5F04
:0200000490600A
:0100000001FE
:00000001FF