:400000000010002011000000910800009108000010B500F045FCC04670B51C4C23688022D20213432360182000F086FD2268184B13402360174A184B1A601022174B1A6030
:400040000132174B1A600F32164B1A601032164B1A6080221206154B1A6000252560144A144B1A60144A154B1A60154A154B1A60154A164B1A601649092000F003FD092077
:4000800000F0EAFC134B1D6070BDC04600010B40FFFFFBFF0600008004010B400802024020020240280202403002024008010B400E00008000000240340000804000024058
:4000C0007700008080000240EF00008004000240490D00000C020B4070B572B600240FE041486200131959000B00411889881A5AC31858880004104300F0C0FB0134E4B2A2
:40010000022CEDD9002411E0374EA2001319590071188D8AC88A000428430A8B498B09041143802200F0B0FB0134E4B2002CEBD02D4920312D481C3000F086FBC022920281
:400140002B4B1A6008222B4B1A602B4A2B4B1A602B4A2C4B1A60EE222B4B1A6099231B042A4A1360C0218904294A1160294A1360294A136091210906284A1160284A136041
:40018000B022D203274B1A6027490B783C22934314221343DBB20B70244A117816230B43DBB213703122224B1A60224A224B1A600122224B1A600532214B1A609A32214B77
:4001C0001A60C3221204204B1A6003231F4A13601F49204A1160204A136024221F4B1A60FFF71AFF70BDC0467C180000FC190000000001400400014000003030080001403F
:4002000033EE00000C0001401000014000500F4008500F4010500F4020500F4028500F4030500F4038500F4001700F4000700F400000044034200100080004400001044035
:4002400008010440000204400802044000030440B60D000008030440000404400804044010B5064C2378002B07D1054B002B02D0044800E000BF0123237010BD48010020D2
:4002800000000000E8170000084B10B5002B03D00749084800E000BF07480368002B00D110BD064B002BFBD09847F9E7000000004C010020E8170000C00000200000000015
:4002C00010B5040001F00EF8200000F013FC00F09BFF10BD10B5040001F082F8200000F009FC01F00FF810BD10B5FA20FFF7F2FFFA2000F0FFFBFA20FFF7ECFFFA2000F0EB
:40030000F9FBFA20FFF7E6FFFA2000F0F3FBFA20FFF7E0FFFA2000F0EDFB10BD10B562B600F080FB00F08CFD544B187800230222102100F06FF900F02DF900F029FA00F055
:400340001DF9142000F0D0F800F05EF9142000F0CBF800F0C7F94A4800F00AFAFA20800000F0C8FB00F0BEF9FA20400000F0C2FB00F0F0F800F00EF907210D2000F098F878
:40038000F721022000F094F88021042000F0D6F880210A2000F0C6F80021012000F088F82621092000F084F80C21012000F080F880210D2000F0B6F8042000F095F82023F7
:4003C0001840304B1870C4D09620FFF779FF2E4800F0CEF9FA24E4002000FFF77BFF00F081F92A4800F0C4F9200000F083FB00F079F9274800F0BCF9AF20C00000F07AFBAA
:400400000121002000F07EF9224800F0B1F9200000F070FB00F066F90021002000F072F91D4800F0A5F9FA24A400200000F062FB0121002000F066F9184800F099F92000F4
:4004400000F058FB164800F093F9200000F052FB144800F08DF9200000F04CFB00F042F9114800F085F90121002000F04BF90F4800F07EF9FFF738FF6BE7C046C40000204A
:40048000EC170000A0010020FC1700000C1800001C180000281800003418000044180000481800004C180000501800006018000070B504000D0000F081FA00F073FA00F093
:4004C00053FAC306FBD564007E20204000F058FA00F04AFAC306FBD5280000F051FA9620800000F01FFB70BD10B5040000F066FA00F058FA00F038FAC306FBD564007E20BD
:400500000440FE382043C0B200F03AFA002000F037FAFA20400000F005FB00F03DFA00F03BFA10BD70B505000C00FFF7DDFF0443E1B22800FFF7BCFF70BDC04670B504008D
:400540000D00FFF7D1FFA843C1B22000FFF7B0FF70BDC04610B50F210120FFF7A9FF0024322000F0C7FA0120FFF7BEFFC30603D50134E4B2022CF3D910BDC04610B5142071
:40058000FFF7B2FF03231843C1B21420FFF790FF10BDC04610B500F045FA00F033FC00280AD100F023FC142000F0BCFA012000F01DFC322000F09EFA00211220FFF778FF51
:4005C00000211320FFF774FF26212420FFF770FF80212A20FFF76CFFA9212B20FFF768FF03212C20FFF764FFE8212D20FFF760FF40211520FFF75CFF3D211120FFF758FF59
:40060000FFF7BCFF10BDC04610B503211420FFF795FF10BD10B5064C20700648017006490A70064A13700822054B1A7010BDC046A2010020A7010020A8010020A4010020D0
:40064000A101002010B50C000A22002100F02AFD0A21200000F0B4FD0A2000F085FD10BD10B5044B1B7801001943034B1878FFF7E9FF10BDA1010020A201002010B5040053
:40068000042003002343D8B2FFF7EAFF012000F049FA042320009843FFF7E2FF322000F041FA10BD10B50400FFF7DAFF2000FFF7E5FF10BD70B50D000F2302009A431300F8
:4006C0000001C4B20B431800FFF7ECFF20002843FFF7E8FF70BDC04610B50021FFF7EAFF10BDC04610B50120FFF7F6FF022000F001FA10BD10B50220FFF7EEFF022000F082
:40070000F9F910BD70B584B06B460C4A70CA70C31C00136823600A4B1B788B4201D2013BD9B289006B46CB58C01880235B421843C0B2FFF7D1FF04B070BDC0466C18000051
:40074000A801002010B5064A107804231843C0B2107008231843C0B2FFF7BEFF10BDC046A301002010B50121FFF7A4FF10BDC04670B5060001F031F80500002403E0305D2C
:40078000FFF7F0FF0134FF232B409C42F7D370BD10B50022254B1A70254B1B78012B02D90821224A1170234A1278002A06D0012B04D11E4A117804230B431370322000F099
:4007C00099F91D4B1878FFF74BFFFA20800000F091F93020FFF766FF184C200000F0A2F93020FFF75FFF200000F09CF93020FFF759FF962000F096F92020FFF753FF0B4B67
:40080000187820231843C0B2FFF766FF04220C4B1A70FFF797FFFFF765FF0222094B1A700620FFF759FFFFF765FF10BDA6010020A8010020A4010020A10100209411000077
:40084000A3010020A5010020F0B50025002711E0BB00C658F3B2FF22964308E06A008A181478A419527822700135013BDBB2002BF4D10137072FEBD9F0BDC04610B50A0058
:40088000002100F0A2FF10BD10B500F095FF10BD10B500F065FF03680C2B00D1FEE7FEE770B50F4E0F4D13E029686B68AC68002202E001C901C30432A242FAD1E86800221B
:4008C00002E0002102C304328242FAD11035013E002EE9D100F04AFFFFF720FDFEE7C046010000000C1B000010B500230AE0032B03D89A000949505800E009489900094A14
:40090000885001332F2BF2D9FFF7E6FB8022D205116801230B43136010BDC04600000000910800000000002010B500F073FD0B4A117820230B43DBB2137009490A781023A1
:400940001A43D2B20A70074A11780B43DBB2137000F064FD00F076F810BDC04691000F4092000F4093000F40014B1878C0B2704762000F40014B1878C0B2704763000F4052
:40098000034B1B785B07FBD5024B18707047C04662000F4041000F40014B1878C0B2704751000F4001E0034B1B78034B1B789B06F9D4704751000F4063000F4010B501E0EC
:4009C0000A4B1B780A4B1B789B06F9D400F022FD084A117801230B43DBB21370137801218B43137000F01AFD10BDC04651000F4063000F4091000F4010B50F22064B1A7072
:400A0000FFF7DCFFFFF7B0FFFFF7B4FF0023034A1370034A137010BD81000F4082000F4083000F4010B5064B1B78002B04D1FFF7E3FF0122024B1A70FFF776FF10BDC046DB
:400A400064010020034A1368802109060B4313607047C046800002401F2318401E3B8340014A13607047C04600E100E01F2318401E3B8340014A13607047C04680E100E0D5
:400A800001BE704770B504000D001F2802D90020FFF7F6FF1034A40080239B059C4664442068256070BDC04670B504000E00032902D90020FFF7E4FF1F2C02D90020FFF7F5
:400AC000DFFF03252540ED00063500F0A3FCA408A400074B9C46644421680323AB4099430B003100A9401943216000F097FC70BD00E400E010B5040006E0084B586800F00A
:400B00007FFC074B9C46644480231B029C42F4D8024B9868604300F073FC10BDC80000200080FFFF10B5034B1B7B584300F068FC10BDC046C8000020F0B557464E46C0B4D5
:400B400083B0040000F066FC0190E71E2D2F74D83F4B1B78DBB29C4208D83E4B1B78DBB29A463D4B1B78DBB2994631E03B4B1B78DBB29C4208D83A4B1B78DBB29A46394BB8
:400B80001B78DBB2994623E0374B1B78DBB29C4208D8364B1B78DBB29A46354B1B78DBB2994615E0334B1B78DBB29C4208D8324B1B78DBB29A46314B1B78DBB2994607E0A3
:400BC0002F4B1B78DBB29A462E4B1B78DBB299462D4BDE5D2F2E09D92A2C07D919222B4B1A60052000F00CFC192503E0274B1D683F231D40B54206D9234BDA5D234B1A6059
:400C0000052000F0FDFB1F4B9C4664442378DBB21F4A13601F4B52461A601F4B4A461A600520FFF77FFFB5420AD2174BDA5D174B1A60052000F0E4FB02E00020FFF720FFD3
:400C4000019800F0EBFB03B00CBC91469A46F0BDC0F1FF0FC1F1FF0FC2F1FF0FC3F1FF0FC4F1FF0FC5F1FF0FC6F1FF0FC7F1FF0FC8F1FF0FC9F1FF0FCAF1FF0FCBF1FF0FF0
:400C8000CCF1FF0FCDF1FF0FB81A00002CFF0B4028FF0B401CFF0B4020FF0B40034B1868C0231B02184000D00120704700010B4010B500F0AFFB044A1368C02109020B4397
:400CC000136000F0ABFB10BD00010B4010B500F0A1FB08490A68084B1A408024E40122430A600A6813408022120213430B6000F095FB10BD00010B40FF3FFFFF70B505007E
:400D000000F088FB0400FFF7C9FF002803D0FFF7DDFF012100E0002108482840084A1568084B2B40184310601368012901D1FFF7BFFF200000F072FB70BDC0460404040097
:400D400010020B40FBFBFBFF10B5244B1B685B0715D5234B1B685B070ED5224BD969042001401F4C22688A432260DA698243DA611B69002B00D098470420FFF7BFFF174BBA
:400D80001B685B0518D5164B1B685B0510D5154BD9698022D2001140114802688A430260D969114A0A40DA615B69002B00D098478020C000FFF7A2FF084B1B685B030CD515
:400DC000074B1B685B0304D5064B9B69002B00D098478020C002FFF791FF10BD10020B40DC00002068010020FFFBFFFF044A1368DBB201218B430840184310607047C04613
:400E000000000440024B1B68012018407047C0460400044010B50A20FFF71EFE10BDC04610B500F01DF810BD10B5044A1368802109060B431360FFF7EDFF10BD00000640C1
:400E400010B5064B1B78002B04D1FFF7E9FF0122024B1A70FFF7E8FF10BDC0468801002010B51B4A11680C230B4313600024194B1C60194A194B1A60194B1A4A13601A4A21
:400E800014601A4A14601A4A13601A4B1C600A20FFF7ECFD03210A20FFF706FE16490A20FFF7F0FD154B1C60154B1C60154B1C60154B1C60154B1C60154B1C601022154BB7
:400EC0001A70154B1C80154B1C60154B1C6010BD7000064000000640770800806000064007010080000306400403064010030640000206400402064025140000C80E0640E6
:400F0000880E0640480F0640080F0640C80F0640880F0640A9010020B8010020C8010020B001002010B5144A13685B005B081360002312490B6012490B60124804681249E5
:400F40002140016011490B6011490B601149124B19601249124B19601249134B19601349134B19601021134B19701368802109060B43136010BDC046000006406800064094
:400F80006C00064060000640FF5CFFFF880F0640C80F0640F3070000800F0640ED0F0000C00F0640FF0F0000400F064017030000000F0640A901002010B504000368002B6B
:400FC00009D00120FFF7AEFD2368013B2360002B03D0002003E0002001E08020000610BD10B5002839DBC023034208D00022284B1A601032274B1A70002310243DE0C3070B
:401000000FD5244B1B781B072BD5234B1B685B0001D5002300E0012310211E4A117001242BE0C30520D4830722D4C30605D51022184B1A70002300241FE0164B1B781B07BB
:4010400019D5144B1B78DB0701D5252200E02422104B1A70002300240FE00123802424060BE00123012408E001238024640004E00023022401E000230024012B02D1FFF7CC
:4010800051FF02E0054A064B1A60200010BDC04668000640A90100206000064017030000000F064070B582B004000D001600244B1B78102B40D10A20FFF7D8FC214B1B68B5
:4010C000DB0734D4FA239B005E43019600221E4B1A601E4A1E4B1A601E4A1F4B1A606400FF231C40002D03D12422154B1A7004E02522134B1A7001231C43184B1C600222CE
:40110000174B1A60124B1C680823FF3320001840144B1B68C02423401843040001A8FFF74BFF2043EED0FFF75BFF040000E008240A20FFF791FC00E00424200002B070BD77
:40114000A901002064000640080F064017030000000F0640ED0F0000C00F06404002064068000640400F064010B582B0104B1B789B061AD5FA239B00584301900D4B1B681F
:401180009B0601D5182200E010220B4B1A600B4B18681223FF331840040001A8FFF70CFF2043F4D0FFF71CFF00E0042002B010BDA90100206400064068000640000F064027
:4011C00010B582B00D4B1B789B0613D5FA239B00594301910A4B18600A4B18680823FF331840040001A8FFF7E7FE2043F4D0FFF7F7FE00E0042002B010BDC046A90100205A
:4012000040020640000F064010B500F003F9044A136804218B43136000F000F910BDC046000005400004000C014B18607047C046880105400004000C014B18607047C04600
:40124000940105400004000C014B18607047C0468C01054070B504000D0000F0DBF8AC40024B1C6000F0DAF870BDC0460800054010B500F0CFF8064A116804230B43136014
:4012800000F0CCF818210420FFF7E4FF10BDC04600000540014B18607047C046B801054010B50D4C8023DB042360236823600020FFF7B8FF236823600C22084B1A60012085
:4012C000FFF7E8FF3122064B1A606420FFF7B2FF3220FFF7B7FF10BD80010540A4010540A801054010B5064B1B78002B04D1FFF7D7FF0122024B1A70FFF7BAFF10BDC0466E
:401300009001002010B500F085F8044A136801218B43136000F082F810BDC046000005400004000C014B18607047C046080105400004000C014B18607047C0461401054052
:401340000004000C014B18607047C0460C01054070B504000D0000F05DF8AC40024B1C6000F05CF870BDC0460800054010B500F051F8064A116801230B43136000F04EF8B4
:4013800018210120FFF7E4FF10BDC04600000540014B18607047C0463801054010B50D4C8023DB042360236823600020FFF7B8FF236823600C22084B1A600120FFF7E8FFDE
:4013C0003122064B1A606420FFF7B2FF3220FFF7B7FF10BD00010540240105402801054010B5064B1B78002B04D1FFF7D7FF0122024B1A70FFF7BAFF10BDC0469101002018
:401400000230800804D0C0460138FDD1C046C046C0467047EFF3108072B6704780F310887047C04610B5AD4B1B68002B00D09847AB4B1B68DB0702D50022AA4B1A60AA4B5D
:401440001B789B0628D5A94B1B68DB0507D5A84A1188C0239B000B431380012300E00023A24A1268D20706D5A14A118890239B000B4313800123002B0FD09B4A1278D207B4
:4014800001D5012200E002229949088802430A800021954A117000E00023934A1278920600D414E1914A1268D20611D51022914B1A608D4B1B78DB0701D5012300E00223BB
:4014C0008B4A11880B4313801022874B1A7004E1854A1278120720D5844A126892070AD50222844B1A60824A118888239B000B431380012311E07C4A1278D20703D52521AE
:40150000794A117009E02421774A11707A4A1268002A02D01439794A1160734A1278520700D4ABE0704A1278D20749D5744A1268120727D5734A1268734909680F240C40D2
:40154000724909686418141B082C09D8002C16D16F4A11686F4B0B401360012308340EE008240CE0694A11686B48006841186B480068C0B20870116801311160013C002C32
:40158000F0D119E05E4A1268520715D55F4A116861480068411861480068C0B208701168013111601168574A1268914203D204215B4A116000E001235A495B4A11605DE0F8
:4015C0004A4A1268920726D502224A4B1A6057490B680D321A40096880231B020B4000D001239B18524A1168CB1A13601268514B1A603F4A118884239B000B4313804E4B6C
:401600001A68802149020A431A6019684B4A0A401A60012332E04A4A1268D20612D424E0434A1168344A1268914211D2404A11684448006841180978C9B243480160116830
:4016400001311160394A12680F210A40082AE7D1374A1168284A1268914202D14021274A11603A493A4A116008E0354A1268520604D52F4B1A682F4B1A600123002B2CD0D2
:40168000234A1168234B0B4013600023314A13601A4A1360304B1B789B070ED5124B1B78DB0701D5092300E00A23114A11880B43138060220C4B1A700FE0284B1B689B06FE
:4016C00001D5182200E01022154B1A6005E0064B1B78DB0601D4FFF725FC10BD8C0100208C0E0640880E0640A90100200C0F0640B8010020000F0640B4010020880F064017
:40170000CC0F0640C401002008030640C801002060000640FFFEFFFFBC0100204003064068000640ED0F0000C00F064008020640AC010020B001002004020640FFFFFEFF6E
:401740008C0F0640CC01002040020640F3070000800F0640C80F0640C001002064000640014B18687047C046400100200E4B70B500251E000D4CE41AA410A54204D0AB0080
:40178000F35898470135F8E700F0AEF9084B00251E00084CE41AA410A54204D0AB00F35898470135F8E770BDF41A0000F41A0000F41A0000FC1A0000002310B59A4203D00E
:4017C000CC5CC4540133F9E710BD03008218934202D019700133FAE770470023C25C0133002AFBD1581E7047000000005245414420594F555220434152440000566572693C
:40180000666965642075736572000000416363657373206772616E746564000057656C636F6D653A0000000041626164205365746869000042756767792073746172747390
:4018400020696E00332E2E00322E2E00312E2E004255474759205354415254454400000053554345535346554C4C59000000000040000000140000005400000000300F4089
:40188000800000310F40000300400F400004000080300F40381A000080000000810F0420062207400C820E2817161D801E4A24212538261827222D802E012F2836083711C6
:4018C0003A043B043C013D203F8045A847024E014F085656574066016C026E016F5D7480758082048601C0F0C2F0C470CAF0CCE0CEB0D0F0D210D88000CD0107031804CDB8
:40190000088D09130A400B0C0C020E0D104D128014721608190B1A801B141CCD1D041F1A200122322410266028122A64310132803470360F371E3AA03B803E043F0154091C
:40194000580459045B045F01800E81018B03930298049A099B03A003A204A805AA0AB00FB103B802D440D804D904DB04DF0101020540075409200C920E200F081322162062
:40198000172219021C101D501F20210224802580268029102A2031223680372038213C013D20458046015E425F14601262106701804083018502881289028A408B109021A2
:4019C000924093049A509B769E21A082A130A211A304A720C0F8C2F2C47ACC35CEA5D6F0D81EE0020E80660282028640C220D880E440E6205A026010D602D8021810220187
:401A0000521059408610894094109602C608C802D405E0010101100101000F402D310F403B320F403B330F4008400F4004420F400C430F4002600F408433004404000000BB
:401A40000A9C1003608200000418800256C109380118000284000000071A38008018040084020018001A00000800000F7FE08013200000280000410032041000050DFCBEE5
:401A80003DFFFFFF2200F008040000000000022C04040404000000010000C00040011011C00100114001400100000000000000000000000000000000030405060708090AE5
:401AC0000B0C0E0F101112131415161718191B1C1D1E1F2021222325262728292A2B2E2F3031323334354300F8B5C046F8BC08BC9E46704789020000E9080000F8B5C046F2
:401B0000F8BC08BC9E46704761020000201B0000C00000208800000088000000000000000000000027000000010000000000E02EC05D00001800000000366E0104040400E8
:401B40000000000000000000000000000000000000000000000000000000000000000000E61A00000000000000000000000000000000000000000000000000000000000065
:401B80000000000000000000000000000000000000000000000000000000000000000000E00000200000000000000000000000000000000000000000000000000000000025
:401BC00000000000000000000000000000000000000000000000000000000000000000000000000000000000000000000000000000000000000000000000000000000000E5
:401C000000000000000000000000000000000000000000000000000000000000000000000000000000000000000000000000000000000000000000000000000000000000A4
:401C40000000000000000000000000000000000000000000000000000000000000000000000000000000000000000000000000000000000000000000000000000000000064
:401C80000000000000000000000000000000000000000000000000000000000000000000000000000000000000000000000000000000000000000000000000000000000024
:0200000490303A
:02000000F99372
:0200000490402A
:200000000000000000000000000000000000000000000000000000000000000000000000E0
:0200000490501A
:0C000000000204C81193110104D10B266A
:0200000490600A
:0100000001FE
:00000001FF