:400000000010002011000000210D0000210D000010B500F08DFEC04670B5164C23688022D20213432360182000F036FF2268124B13402360114A124B1A601022114B1A6028
:400040001032114B1A6080221206104B1A60002525600F4A0F4B1A600F4A104B1A601049092000F0BFFE092000F0A6FE0D4B1D6070BDC04600010B40FFFFFBFF0600008016
:4000800004010B40080202403002024008010B400E000080000002407700008040000240A91000000C020B4070B572B600240FE037486200131959000B00411889881A5AD2
:4000C000C31858880004104300F020FE0134E4B2012CEDD9002411E02D4EA2001319590071188D89C889000428430A8A498A09041143802200F010FE0134E4B2002CEBD0F2
:40010000234918312348583000F0E6FDCC229203214B1A60214A224B1A60EE22214B1A6099231B04204A1360E02109051F4A11601F4A13601F4A1360C02292021E4B1A60E1
:400140001E490B783C22934314221343DBB20B701B4A117816230B43DBB213703122194B1A60194A194B1A60C0225203184B1A600122184B1A60184A184B1A600322184BFB
:400180001A602132174B1A60FFF746FF70BDC046A41A0000A41B00000000014003EE00000C0001401000014000500F4008500F4010500F4030500F4038500F4001700F4080
:4001C00000700F4000000440046003000800044008010440000304408E0D000008030440000404400804044010B5064C2378002B07D1054B002B02D0044800E000BF012322
:40020000237010BD4801002000000000681A0000084B10B5002B03D00749084800E000BF07480368002B00D110BD064B002BFBD09847F9E7000000004C010020681A0000A6
:40024000C00000200000000010B501F0EBF900F093FF294B187800230222102100F05AF800F040FA00F0F4F862B600F0BBF8234800F0DEF8FA20800000F0ECFD00F0B2F8C5
:40028000FA20400000F0E6FD00F0F8FC002804D1F530FF3000F0DEFDE7E700F011FD00280FD1F530FF3000F0D5FDDEE7144AD2185178144AD25C914200D001300133DBB230
:4002C00001E0002300200E4A12789342EED3002808D100F087F80C4800F0AAF80B4800F0B9FDC2E700F07EF8094800F0A1F8074800F0B0FDB9E7C046C4000020701A00002A
:40030000900100206C1A0000801A000088130000941A000010B5064C20700648017006490A70064A13700822054B1A7010BDC0469D010020A2010020A30100209F010020C5
:400340009C01002010B50C000A22002101F046F80A21200001F0D0F80A2001F0A1F810BD10B5044B1B7801001943034B1878FFF7E9FF10BD9C0100209D01002010B504001D
:40038000042003002343D8B2FFF7EAFF012000F079FD042320009843FFF7E2FF322000F071FD10BD10B50400FFF7DAFF2000FFF7E5FF10BD70B50D000F2302009A43130095
:4003C0000001C4B20B431800FFF7ECFF20002843FFF7E8FF70BDC04610B50021FFF7EAFF10BDC04610B50120FFF7F6FF022000F031FD10BD10B50220FFF7EEFF022000F052
:4004000029FD10BD10B5064A107804231843C0B2107008231843C0B2FFF7DEFF10BDC0469E01002010B50121FFF7C4FF10BDC04670B5060001F011FB0500002403E0305D27
:40044000FFF7F0FF0134FF232B409C42F7D370BD10B50022254B1A70254B1B78012B02D90821224A1170234A1278002A06D0012B04D11E4A117804230B431370322000F0DC
:40048000E9FC1D4B1878FFF76BFFFA20800000F0E1FC3020FFF786FF184C200000F0F2FC3020FFF77FFF200000F0ECFC3020FFF779FF962000F0E6FC2020FFF773FF0B4B6B
:4004C000187820231843C0B2FFF786FF04220C4B1A70FFF797FFFFF785FF0222094B1A700620FFF779FFFFF785FF10BDA1010020A30100209F0100209C010020941100004F
:400500009E010020A001002070B504000D0001F037F8C306FBD564007E20204001F03CF801F02EF8C306FBD5280001F035F870BD70B504000D00160001F022F8C306FBD5B2
:4005400064007E20204001F027F8002408E001F017F8C306FBD5305D01F01EF80134E4B2AC42F4D370BDC04610B5040001F008F8C306FBD564007E200440FE382043C0B279
:4005800001F00AF800F0FCFFC306FBD5002001F003F801F00DF810BDF0B583B0040015001E0000293DD00139CFB200F0E9FFC306FBD564007E231C40FE3B2343DBB2019363
:4005C000180000F0E9FF002E13D0FF23B3401E00DCB200F0D5FFC306FBD5019800F0DCFF00F0E6FF2B78B34304401C432C7001240EE000240CE000F0C3FFC306FBD50198C4
:4006000000F0CAFF2E1900F0D3FF30700134E4B2BC42F0D3002000F0BFFF2C1900F0C8FF207003B0F0BDC04670B505000C00FFF79BFF0443E1B22800FFF766FF70BDC046B6
:4006400070B504000D00FFF78FFFA843C1B22000FFF75AFF70BDC04670B506000C00150000210120FFF750FF04210520FFF74CFF80210A20FFF748FF320021000920FFF7E8
:4006800057FF03210120FFF73FFF0D4C14E00520FFF76AFF43070DD500210120FFF734FF2220FFF761FF28702120FFF75DFF6870002004E0013CA4B2002CE8D1032070BD9C
:4006C0008813000010B51420FFF74EFF03230340032B05D003231843C1B21420FFF714FF10BDC04610B500F09DFF00F0B7FF00280AD100F0A7FF142000F0C4FB012000F02F
:40070000A1FF322000F0A6FB00211220FFF7FCFE00211320FFF7F8FE26212420FFF7F4FE80212A20FFF7F0FEA9212B20FFF7ECFE03212C20FFF7E8FEE8212D20FFF7E4FE02
:4007400040211520FFF7E0FE3D211120FFF7DCFEFFF7B8FF10BDC046F0B585B00400009201930DAB1D780EAB1E780C9B002B01D01A7800E000222B01D318DFB2002101206F
:40078000FFF7C2FE7F210420FFF7BEFE80210A20FFF7BAFE009A01990920FFF7C9FE39000D20FFF7B1FE21000120FFF7ADFE0C2C03D180210D20FFF737FFFA24E40008E09C
:4007C0000420FFF7D1FE642805D0C3076AD4013CA4B2002CF4D1002C66D00620FFF7C4FE04001323034261D10A9B002B1BD00B9B002B1AD00A20FFF7B7FE0B9B1B789842D4
:4008000056D80B9B18702B000A9A01000920FFF7C3FE0C20FFF7A8FE072318400C9B002B04D0187002E0002000E0002008231C4040D10A9B002B3ED00B9B002B3BD0002EB2
:4008400039D01B78012B01D104281FD0012B1FD900281FD1023BD9B203AA0A98FFF7FCFE002819D10B9B1B780A9AD218023A117803AA1278914211D10A9A94466344013B95
:400880001A7803AB5B789A420AD114E0FF2412E0072410E007240EE004000CE007240AE0072408E0032406E0032404E0012402E0042400E00224200005B0F0BD70B586B0EF
:4008C0000AAC20CC24780CAE3678049603940295019300920B00020030210C20FFF73CFF06B070BD30B589B00C00150017236B441870002921D01378012B20D980210E207D
:40090000FFF79EFE1F236B4407221A7000220292019200932B002200012117206844FFF7CDFF00280ED12B78022B0AD11D336B441878002806D0012004E0042002E0042023
:4009400000E0012009B030BD10B50A0001002620FFF7C8FF10BDC046F0B55F4656464D464446F0B48DB082460591502900D96FE180210E20FFF764FE0123069300230793A5
:4009800059E1069B022B17D0032B28D0012B00D060E1932209AB1A70059B002B05D053461B78042B03D8002002E0002000E00120804600239B4619E0952209AB1A70059BA1
:4009C000002B05D053461B78072B03D8002002E0002000E00120804603239B4606E0972209AB1A7006239B46002398465B46DD00059B5D1B6DB2002D00DA00254346002B51
:400A000004D0882209AB9A70032100E00221EBB29C460723624613401F007B1E9F41EA17072313405B19DB10FB18DBB2002B1DD04246002A01D0032700E004279F4200D316
:400A40001F0000235C46A9465546B24608E0481CE218AA18567809AA56540133DBB2C1B2BB42F4D3A3465646AA464D464346002B02D0654608356DB200231F00B0468EE0AA
:400A80001F2D24DD09A8702343708478C27803794179624053404B4083711B2204AB9C4662440721FFF7D8FD002800D0DFE00022132304A98C4663441A700332122363449B
:400AC0001A701A23634498460923994621E0EB17580F291807221140091AC9B2132004ACA4466044017013405B19DB10DBB20233DBB209A81A018A1842704A1E9141C918BE
:400B0000CAB29146804698440922D31A122262441370132404AB9C466444267831017118C9B20D20FFF7F0FC0023029301960094123304AA944663444246494609A8FFF7E3
:400B4000BDFE022824D10C30FFF70EFD830600D582E01F23184000D12030A8427EDD45B207202A0002406B1ED917490F5B1803405B1A511E8A41E90852180132D2B2FF21AC
:400B8000194001238B4009A9885C03438B5406E000286CD11F2D01DD012700E02025002F00D16DE7464609AB9B78882B01D1032100E00221882B01D1032500E00425002344
:400BC0005F46B446564608E0FA18481C09AC615CB21851700133DBB2C1B2AB42F4D3B2466646122304AA944663441B78032B37D1103363441B78002B34D1162262440121F9
:400C00003000FFF729FD002831D109AB9A7873789A4229D109ABDA78B3789A4226D133785A0704D5069B0133DBB2069303E05246D37201230793079B002B00D1A1E6069A90
:400C400053009446634401335246137000200EE006200CE005200AE0022008E0052006E0012004E0012002E0072000E007200DB03CBC90469946A246AB46F0BD10B582B0F0
:400C80006B46DC1C0223237000211220FFF73CFC00211320FFF738FC26212420FFF734FC210001A8FFF750FE002803D0022803D1013802E0012000E0002002B010BDC0465B
:400CC00010B500210348FFF747FE43425841C0B210BDC04690010020F0B50025002711E0BB00C658F3B2FF22964308E06A008A181478A419527822700135013BDBB2002B57
:400D0000F4D10137082FEBD9F0BDC04610B50A00002100F09AFE10BD10B500F08DFE10BD10B500F05DFE03680C2B00D1FEE7FEE770B50F4E0F4D13E029686B68AC680022FE
:400D400002E001C901C30432A242FAD1E868002202E0002102C304328242FAD11035013E002EE9D100F042FEFFF76EFAFEE7C04601000000F41C000010B500230AE0032B29
:400D800003D89A000949505800E009489900094A885001332F2BF2D9FFF786F98022D205116801230B43136010BDC04600000000210D0000000000201F2318401E3B834053
:400DC000014A13607047C04600E100E01F2318401E3B8340014A13607047C04680E100E001BE704770B504000D001F2802D90020FFF7F6FF1034A40080239B059C466444B7
:400E00002068256070BDC04670B504000E00032902D90020FFF7E4FF1F2C02D90020FFF7DFFF03252540ED00063500F033FCA408A400074B9C46644421680323AB409943AB
:400E40000B003100A9401943216000F027FC70BD00E400E010B5040006E0084B586800F00FFC074B9C46644480231B029C42F4D8024B9868604300F003FC10BDC8000020D5
:400E80000080FFFF10B5034B1B7B584300F0F8FB10BDC046C8000020F0B557464E46C0B483B0040000F0F6FB0190E71E2D2F74D83F4B1B78DBB29C4208D83E4B1B78DBB221
:400EC0009A463D4B1B78DBB2994631E03B4B1B78DBB29C4208D83A4B1B78DBB29A46394B1B78DBB2994623E0374B1B78DBB29C4208D8364B1B78DBB29A46354B1B78DBB28A
:400F0000994615E0334B1B78DBB29C4208D8324B1B78DBB29A46314B1B78DBB2994607E02F4B1B78DBB29A462E4B1B78DBB299462D4BDE5D2F2E09D92A2C07D919222B4BD7
:400F40001A60052000F09CFB192503E0274B1D683F231D40B54206D9234BDA5D234B1A60052000F08DFB1F4B9C4664442378DBB21F4A13601F4B52461A601F4B4A461A608C
:400F80000520FFF77FFFB5420AD2174BDA5D174B1A60052000F074FB02E00020FFF720FF019800F07BFB03B00CBC91469A46F0BDC0F1FF0FC1F1FF0FC2F1FF0FC3F1FF0FD5
:400FC000C4F1FF0FC5F1FF0FC6F1FF0FC7F1FF0FC8F1FF0FC9F1FF0FCAF1FF0FCBF1FF0FCCF1FF0FCDF1FF0FA01C00002CFF0B4028FF0B401CFF0B4020FF0B40034B1868E4
:40100000C0231B02184000D00120704700010B4010B500F03FFB044A1368C02109020B43136000F03BFB10BD00010B4010B500F031FB08490A68084B1A408024E401224381
:401040000A600A6813408022120213430B6000F025FB10BD00010B40FF3FFFFF70B5050000F018FB0400FFF7C9FF002803D0FFF7DDFF012100E0002108482840084A1568FF
:40108000084B2B40184310601368012901D1FFF7BFFF200000F002FB70BDC0460404040010020B40FBFBFBFF10B5244B1B685B0715D5234B1B685B070ED5224BD9690420D7
:4010C00001401F4C22688A432260DA698243DA611B69002B00D098470420FFF7BFFF174B1B685B0518D5164B1B685B0510D5154BD9698022D2001140114802688A4302603E
:40110000D969114A0A40DA615B69002B00D098478020C000FFF7A2FF084B1B685B030CD5074B1B685B0304D5064B9B69002B00D098478020C002FFF791FF10BD10020B4096
:40114000DC00002064010020FFFBFFFF10B50A20FFF732FE10BDC04610B500F01DF810BD10B5044A1368802109060B431360FFF7EDFF10BD0000064010B5064B1B78002BAF
:4011800004D1FFF7E9FF0122024B1A70FFF7E8FF10BDC0468401002010B51B4A11680C230B4313600024194B1C60194A194B1A60194B1A4A13601A4A14601A4A14601A4A06
:4011C00013601A4B1C600A20FFF700FE03210A20FFF71AFE16490A20FFF704FE154B1C60154B1C60154B1C60154B1C60154B1C60154B1C601022154B1A70154B1C80154B00
:401200001C60154B1C6010BD70000640000006407708008060000640070100800003064004030640100306400002064004020640A5160000C80E0640880E0640480F06408D
:40124000080F0640C80F0640880F0640A4010020B4010020C4010020AC01002010B5144A13685B005B081360002312490B6012490B601248046812492140016011490B60A5
:4012800011490B601149124B19601249124B19601249134B19601349134B19601021134B19701368802109060B43136010BDC04600000640680006406C0006406000064080
:4012C000FF5CFFFF880F0640C80F0640F3070000800F0640ED0F0000C00F0640FF0F0000400F064017030000000F0640A401002010B504000368002B09D00120FFF7C2FDD6
:401300002368013B2360002B03D0002003E0002001E08020000610BD10B5002839DBC023034208D00022284B1A601032274B1A70002310243DE0C3070FD5244B1B781B075A
:401340002BD5234B1B685B0001D5002300E0012310211E4A117001242BE0C30520D4830722D4C30605D51022184B1A70002300241FE0164B1B781B0719D5144B1B78DB07BE
:4013800001D5252200E02422104B1A70002300240FE00123802424060BE00123012408E001238024640004E00023022401E000230024012B02D1FFF751FF02E0054A064B79
:4013C0001A60200010BDC04668000640A40100206000064017030000000F064070B582B004000D001600244B1B78102B40D10A20FFF7ECFC214B1B68DB0734D4FA239B0093
:401400005E43019600221E4B1A601E4A1E4B1A601E4A1F4B1A606400FF231C40002D03D12422154B1A7004E02522134B1A7001231C43184B1C600222174B1A60124B1C686F
:401440000823FF3320001840144B1B68C02423401843040001A8FFF74BFF2043EED0FFF75BFF040000E008240A20FFF7A5FC00E00424200002B070BDA4010020640006406E
:40148000080F064017030000000F0640ED0F0000C00F06404002064068000640400F064010B582B0104B1B789B061AD5FA239B00584301900D4B1B689B0601D5182200E0BF
:4014C00010220B4B1A600B4B18681223FF331840040001A8FFF70CFF2043F4D0FFF71CFF00E0042002B010BDA40100206400064068000640000F064010B582B00D4B1B7898
:401500009B0613D5FA239B00594301910A4B18600A4B18680823FF331840040001A8FFF7E7FE2043F4D0FFF7F7FE00E0042002B010BDC046A401002040020640000F064020
:4015400010B500F0A7F80B4A117820230B43DBB2137009490A7810231A43D2B20A70074A11780B43DBB2137000F098F800F07EF810BDC04690000F4093000F4092000F40A3
:40158000014B1878C0B2704763000F40014B1878C0B2704762000F40034B1B785B07FBD5024B18707047C04663000F4040000F40014B1878C0B2704750000F4010B501E08E
:4015C0000A4B1B780A4B1B789B06F9D400F062F8084A117801230B43DBB21370137801218B43137000F05AF810BDC04650000F4062000F4090000F4010B50F22064B1A70F3
:40160000FFF7DCFFFFF7BCFFFFF7C0FF0023034A1370034A137010BD80000F4083000F4082000F4010B5064B1B78002B04D1FFF7E3FF0122024B1A70FFF782FF10BDC046AC
:401640008C010020044A1368DBB201218B430840184310607047C04600000440024B1B68012018407047C04604000440034A1368802109060B4313607047C046400002409D
:401680000230800804D0C0460138FDD1C046C046C0467047EFF3108072B6704780F310887047C04610B5AD4B1B68002B00D09847AB4B1B68DB0702D50022AA4B1A60AA4BDB
:4016C0001B789B0628D5A94B1B68DB0507D5A84A1188C0239B000B431380012300E00023A24A1268D20706D5A14A118890239B000B4313800123002B0FD09B4A1278D20732
:4017000001D5012200E002229949088802430A800021954A117000E00023934A1278920600D414E1914A1268D20611D51022914B1A608D4B1B78DB0701D5012300E0022338
:401740008B4A11880B4313801022874B1A7004E1854A1278120720D5844A126892070AD50222844B1A60824A118888239B000B431380012311E07C4A1278D20703D525212B
:40178000794A117009E02421774A11707A4A1268002A02D01439794A1160734A1278520700D4ABE0704A1278D20749D5744A1268120727D5734A1268734909680F240C4050
:4017C000724909686418141B082C09D8002C16D16F4A11686F4B0B401360012308340EE008240CE0694A11686B48006841186B480068C0B20870116801311160013C002CB0
:40180000F0D119E05E4A1268520715D55F4A116861480068411861480068C0B208701168013111601168574A1268914203D204215B4A116000E001235A495B4A11605DE075
:401840004A4A1268920726D502224A4B1A6057490B680D321A40096880231B020B4000D001239B18524A1168CB1A13601268514B1A603F4A118884239B000B4313804E4BE9
:401880001A68802149020A431A6019684B4A0A401A60012332E04A4A1268D20612D424E0434A1168344A1268914211D2404A11684448006841180978C9B2434801601168AE
:4018C00001311160394A12680F210A40082AE7D1374A1168284A1268914202D14021274A11603A493A4A116008E0354A1268520604D52F4B1A682F4B1A600123002B2CD050
:40190000234A1168234B0B4013600023314A13601A4A1360304B1B789B070ED5124B1B78DB0701D5092300E00A23114A11880B43138060220C4B1A700FE0284B1B689B067B
:4019400001D5182200E01022154B1A6005E0064B1B78DB0601D4FFF781FC10BD880100208C0E0640880E0640A40100200C0F0640B4010020000F0640B0010020880F064049
:40198000CC0F0640C001002008030640C401002060000640FFFEFFFFB80100204003064068000640ED0F0000C00F064008020640A8010020AC01002004020640FFFFFEFF00
:4019C0008C0F0640C801002040020640F3070000800F0640C80F0640BC01002064000640014B18687047C046400100200E4B70B500251E000D4CE41AA410A54204D0AB0006
:401A0000F35898470135F8E700F062F9084B00251E00084CE41AA410A54204D0AB00F35898470135F8E770BDDC1C0000DC1C0000DC1C0000E41C0000002310B59A4203D02F
:401A4000CC5CC4540133F9E710BD03008218934202D019700133FAE770470023C25C0133002AFBD1581E704700000000958A0F2B5245414420594F555220434152440000F6
:401A80004F5A492049532045454E204245455354000000004F5A492049532041204245415354000080300F40800300400F40000400300F40201C000080000000800F0098D8
:401AC0000101080409800A881028114018541981200A215422542311282429102A04318032143301399540404104420448454904500252146202682869556B0171808A04FF
:401B0000C00FC20FC407CA06CC0FCE0FD007D20CD80104380E021414162B18101A271C0D1E103003343C3820544058045B045F018002820D847285158608870A89198B0612
:401B40008C4D8E80900191029232930D9412966498109A609CCD9D139F0CA0CDA4CDA88DAA40AE80B00FB10FB280B470B710BA22BB02BE04BF40D409D804D904DB04DF017A
:401B800000080142044409800A840B100D140F01102B1101191A1A041C442282324239285820598562806401650866108C44916992809311982099859A109D10A02EA1809C
:401BC000A602B404C0ADC2EFC40FCC09CE06D60FD878E240E64063086620D8C08E208F049E20A7048A10E604061054029E10A002B402C004D604EC020101100101000F4056
:401C00002A310F4037320F402B330F4003400F4004410F4002420F4008430F4002600F40841A00005618090201020018603300440718380204C100380A9C1003841A0000DB
:401C40000000000084820000801804000400800080007F0F7FE0081328000028000041003605400002BEF0DC3BFFFFFF2200F008040000000000022C040404040000000189
:401C80000000C00040011011C00100114001400100000000000000000000000000000000030405060708090A0B0C0E0F101112131415161718191B1C1D1E1F20212223253D
:401CC000262728292A2B2E2F3031323334354300F8B5C046F8BC08BC9E46704711020000790D0000F8B5C046F8BC08BC9E467047E9010000081D0000C00000208800000086
:401D000088000000000000000000000027000000010000000000E02EC05D00001800000000366E0104040400000000000000000000000000000000000000000000000000FF
:401D40000000000000000000CE1C00000000000000000000000000000000000000000000000000000000000000000000000000000000000000000000000000000000000079
:401D80000000000000000000E00000200000000000000000000000000000000000000000000000000000000000000000000000000000000000000000000000000000000023
:401DC00000000000000000000000000000000000000000000000000000000000000000000000000000000000000000000000000000000000000000000000000000000000E3
:401E000000000000000000000000000000000000000000000000000000000000000000000000000000000000000000000000000000000000000000000000000000000000A2
:401E40000000000000000000000000000000000000000000000000000000000000000000000000000000000000000000000000000000000000000000000000000000000062
:401E80000000000000000000000000000000000000000000000000000000000000000000000000000000000000000000000000000000000000000000000000000000000022
:0200000490303A
:02000000C9CF66
:0200000490402A
:200000000000000000000000000000000000000000000000000000000000000000000000E0
:0200000490501A
:0C000000000204C81193110104D1DB625E
:0200000490600A
:0100000001FE
:00000001FF