:400000000040002011000000F5030000F503000010B500F0F7F9C04670B512222A4B1A6000F044FB294802F0C7F8012000F05EFB302000F031FA264A264B1A60264C8025D4
:40004000ED052560254A116802230B431360244A244B1A600022244B1A60244A136808218B431360FA20C00000F090FA204800F083FA204A204B1A60204B214A1A60214954
:40008000214A1160214A1A6088218901204A1160204A1A60802212061F4B1A608022D2021E4B1A6041221E4B1A6001321D4B1A60023A1D4B1A601D49082000F033FA08204A
:4000C00000F024FA256070BD30001040001BB7000600008004010B400C020B4078002E402D3E00007C002E4064F02E406CF02E40DC05000000DF01000403014000000140AE
:4001000041FF008000AF04000803014042FF00800003014040FF008008010B4000010B40200101401C010140040101400508000010B572B600222C4B1A6000240FE02B4803
:400140006200131959000B00411889881A5AC31858880004104300F047F90134E4B2012CEDD9224801000C31203000F013F9204A204B1A60802212011F4B1A6099231B04F8
:400180001E4A13601E4A13601E4A13601E4A13601E4A1F4B1A601F4A117806230B43DBB2137020231C4A13601C491D4A11601D4A136005221C4B1A607E32FF321B4B1A6012
:4001C000433AFF3A1A4B1A6080221203194B1A608022194B1A608022D203184B1A60FFF71BFF00F0F1F810BD6CF02E40445D0100000099EE000002400001024000500F4034
:4002000010500F4020500F4030500F40202002002001204000700F40000004400010DB0008000440180004400001044008010440000204400802044000030440080304406C
:4002400010B5064C2378002B07D1054B002B02D0044800E000BF0123237010BDE8100020000000002C5D0100084B10B5002B03D00749084800E000BF07480368002B00D160
:4002800010BD064B002BFBD09847F9E700000000EC1000202C5D0100A00B00200000000010B584B0040001A812230381184B0193012383800023174A002110F0D7FF262CB0
:4002C0001AD002D8012C05D01FE0412C06D0422C0BD01AE0002000F015FD16E0002001F053FF012001F05CFF0FE0012001F04CFF002001F055FF08E0074B1B78062B04D147
:40030000012000F07BF900F0AFF904B010BDC04604110020702300205E23002000B583B062B600F0D5FA00F0BDFB00F025FCFF2000F05CFB7F2000F061FB124800F086FCFB
:4003400000F0C0FB012819D100F0DAFB800800B20D4B18800A2201A902F01BFA0B4800F031FB01A800F02EFB094800F02BFB002000F0BEFBFA20400000F0E6F802F09CFAE2
:40038000DEE7C046A102000004110020305D0100405D0100F0B50025002711E0BB00C658F3B2FF22964308E06A008A181478A419527822700135013BDBB2002BF4D1013754
:4003C000032FEBD9F0BDC0460323044A1360044A13600022034B1A607047C0463000304030003140000E3F4010B50A00002102F0ECF910BD10B502F089F903680C2B00D1F7
:40040000FEE7FEE770B50F4E0F4D13E029686B68AC68002202E001C901C30432A242FAD1E868002202E0002102C304328242FAD11035013E002EE9D102F06EF9FFF76EFF0B
:40044000FEE7C04601000000E05F010010B50E4A136801218B43136000230AE0032B03D89A000A49505800E009489900094A885001332F2BF2D9FFF75BFE034A1168012323
:400480000B43136010BDC0460000104000000000F50300000000002010B586B0040001F094FE0E4B1B6800930D4B1B680193033C0C4B1B5D02930C4B1B68039304AA0B4BC9
:4004C00004936B4605930A4B1A600A490A4A11601B6801F07EFE06B010BDC04608010B4000010B40745D010030001040B6EA0000080010401700008004001040024B1B6817
:40050000012018407047C0460C002E401F2318401E3B8340014A13607047C04600E100E001BE704770B504000D001F2802D90020FFF7F6FF1034A40080239B059C4664448B
:400540002068256070BDC04610B5040006E0084B586801F031FE074B9C46644480231B029C42F4D8024B9868604301F025FE10BDA40B00200080FFFF10B5034B1B7B5843B1
:4005800001F01AFE10BDC046A40B002010B504000F4A116801230B4313600E4A0E4B1A600E4A1368802109020B431360002809D100200CE00120FFF7DFFFFFF79FFF0028E6
:4005C00004D1013C002CF5D1102000E0002010BD60F02E400220000078002E4010002E4010B501F0F2FD044A136804218B43136030BF01F0EEFD10BD10ED00E010B50400A4
:4006000001F0E3FD002C05D0074B1B6880225202134303E0044B1A68044B1340024A136001F0D7FD10BDC0462C000B40FFFFFEFF10B501F0CAFD094B1B689B030AD4074B86
:400640001968074A0A4007490A431A601A681A681A681A6001F0BDFD10BDC0462C000B40FF000100003A028010B501F0AEFD094C226880235B021340F22213432360FFF720
:40068000D7FF23688022120613432360C046C04630BF10BD2C000B40034B1868C0231B02184000D00120704700010B4010B50D4B1A6801218A431A601A68022082431A6002
:4006C000094A10683024A043203C204310601068093CA043014311601A68802109060A431A6010BD00F02E4000FF2E4070B51D4B1B6801241C40002802D0012816D02BE03E
:40070000184B19680122914319601968022081431960154B19682E3081432038014319601968093881430A431A6018E00D4B1A6802218A431A600C4A10680725A8430143BB
:400740001160116830208143103801431160196801220A431A6002E00020FFF7E1FE200070BDC04600F02E4000FF2E4010B501F02CFD044A1368C02109020B43136001F0D8
:4007800028FD10BD00010B4010B501F01EFD08490A68084B1A408024E40122430A600A6813408022120213430B6001F012FD10BD00010B40FF3FFFFF70B5050001F005FDB4
:4007C0000400FFF769FF002803D0FFF7DDFF012100E0002108482840084A1568084B2B40184310601368012901D1FFF7BFFF200001F0EFFC70BDC0460404040010020B40D4
:40080000FBFBFBFF10B5244B1B685B0715D5234B5B685B070ED5224B596A042001401F4C62688A4362605A6A82435A629B69002B00D098470420FFF7BFFF174B1B685B05B6
:4008400018D5164B5B685B0510D5154B596A8022D2001140114842688A434260596A114A0A405A62DB69002B00D098478020C000FFF7A2FF084B1B685B030CD5074B5B6865
:400880005B0304D5064B1B6A002B00D098478020C002FFF791FF10BD10020B40B80B002008110020FFFBFFFF10B500F075F810BD10B500F01DF810BD10B5044A1368802176
:4008C00009060B431360FFF7EFFF10BD0000244010B5064B1B78002B04D1FFF7E9FF0122024B1A70FFF7E8FF10BDC04630110020154A164B1A600023154A13601549164A94
:400900001160164A16490A6007201649086016490B6006381549086015490A60154A13600421154A1160154A1360154A1360154A1360154A1360154A1360154A136012686C
:40094000144B1A807047C0460B000002000024404000244001000A00480024400700008000032440040324401003244044002440000224400402244050002440880E2440FF
:40098000C80E2440480F2440080F2440C80F2440880F244032110020064A1168064B0B40902109040B431360044B1A88044B1A607047C04600000240FFFF0FFF3211002022
:4009C000880F244070B50500002402E001F004FC0134285D0028F9D170BDC0460004000C014B18607047C046480120400004000C014B18607047C046540120400004000C6C
:400A0000014B18607047C0464C01204070B504000D0001F0DAFBAC40024B1C6001F0D9FB70BDC0460800204010B501F0CEFB064A116802230B43136001F0CBFB1821022037
:400A4000FFF7E4FF10BDC04600002040014B18607047C0467801204010B50E4C8023DB042360236823600020FFF7B8FF236823600C22094B1A600120FFF7E8FF3122074B64
:400A80001A60074C2000FFF7B1FF2000FFF7B6FF10BDC046400120406401204068012040FFFF000010B5064B1B78002B04D1FFF7D3FF0122024B1A70FFF7B6FF10BDC046EF
:400AC00034110020024B1B68012018407047C0460401044010B501F078FB044A116801230B43136001F075FB10BDC046000020400004000C014B18607047C04608012040DF
:400B0000024B18680004000C7047C046080120400004000C014B18607047C046140120400004000C014B18607047C0460C012040014B18607047C0463801204010B580222D
:400B4000D2000A4B1A600A4A0A4B1A600120FFF7EFFFFA200001FFF7DBFFFA20C000FFF7DFFF0020FFF7C4FF10BDC046000120405E0300002401204010B5064B1B78002B4C
:400B800004D1FFF7DBFF0122024B1A70FFF7A2FF10BDC0463511002010B50A4B1B88002B04D10E220021084801F00FFE054BDB88002B04D106220021044801F006FE01F03C
:400BC0001FF910BDC80C0020742300206423002010B50022144B1A70144B1A70144B1A70144B1A70144940314888144B18808888588088791873C97919710621D98122318A
:400C0000198200245A82FA2189009982DA82013A1A831F320A4B1A80FFF7BEFF094B1C70094B1C7010BDC046852300206C2300208323002082230020C00B00204023002030
:400C40005A230020342300203C23002010B590B00400142221490BA801F0AEFD204B1B78002B04D1FFF7B4FF01221D4B1A70002C30D01C4B1C6008A805AA426006AB0893D1
:400C8000002101811B311980598017391971002313701231694401F0EBFE00281BD1124B0293124B0193052300930BABAE2212010F49104801F032FE00280CD101220E4BEC
:400CC0001A7007320D4B1A70073213210C4810F0B5FA00E0012010B010BDC046A45D010036110020382300207902000080680100C0000020D51900005E2300205F230020F2
:400D0000B85D010010B5022833D81E4B1B78062B31D11D4B1B785B0730D400280BD11B4B1A004C321E2111822022196D0A801B6D10325A800EE001280CD1144B1A004C325E
:400D400096211182C822D200196D0A801B6D8022D2015A800E4B18700C484C300DF064FE00280DD1084A117804230B43DBB2137006E0012004E00420FF3001E00420FF309E
:400D800010BDC0465E23002085230020C00B0020832300207047C04610B5022823D8002807D1124B40331E221A8112325A809A800AE0012808D10D4B403396221A81802210
:400DC00012015A80F83A9A80094B1870074840300DF0C2FD002807D1064A117804230B43DBB2137000E0012010BDC046C00B0020822300208523002010B50B4B1B78052BDB
:400E00000ED10DF09FFD0400084B1B88002B01D00AF05AFD002C05D10622034B1A7001E00424FF34200010BD5E2300205A23002003784078000218437047C04670B5050013
:400E400083890F2B1FD1043031332A00002110F00DFA041E11D16868FFF7EAFF830706D50A4B1B68290082204000984705E0074B1B6829000620FF309847054A1378012165
:400E80008B43137000E00024200070BD382300208523002010B5C288094B9A420FD1094B5B88002B05D18288064B5A8082781A7005E0811D044B1B6886204000984710BD56
:400EC000052A0000642300203823002010B58288084B9A420DD1084B9B88002B03D14288054B9A8005E0011D044B1B6886204000984710BD02290000642300203823002068
:400F000010B5084B5A8883899A420AD1064B1B680100832040009847044A137801218B43137010BD642300203823002085230020074B00225A701A70064B1B78052B03D1AA
:400F40000732044B1A7002E00822024B1A707047702300205F23002010B5C3883F4A93426CD007D83E4A93421DD058D8013A93420AD071E03B4A934233D03B4A93423FD06C
:400F80003A4A934268D11DE0394B1B88002B03D18288374B1A805FE0811D364B1B6886204000984758E0324B5B88002B03D182882F4B5A8050E0811D2E4B1B68862040000B
:400FC000984749E02A4B1B89002B03D18288284B1A8141E0811D274B1B688620400098473AE0234B5B89002B03D18288204B5A8132E0811D1F4B1B688620400098472BE018
:401000001B4B9B89002B03D18288194B9A8123E0811D184B1B688620400098471CE0144B9B88002B03D18288114B9A8014E0811D104B1B688620400098470DE00C4BDB8879
:40104000002B03D182880A4BDA8005E0811D094B1B6886204000984710BDC046032A0000012A0000A62A0000C92A0000042A0000742300203823002082B000236A461380B3
:401080005380094B1B78002B06D1084B5B8801331380074B1B895380009B180C00041B041B0C184302B070478423002064230020C80C002010B504000378032B35D1204B9C
:4010C0001B789B0731D51F4B1B78022B11D0DAB2022A02D8012B05D01FE0032B10D0042B15D01AE0184B1B6800210820FF30984713E0154B1B6800218420400098470CE019
:40110000114B1B6800210A20FF30984705E00E4B1B680021852040009847094A137802218B4313700022074B1A702378042B05D1064B1B78052B01D1FFF75EFE10BDC046D6
:40114000852300205F230020382300205E23002010B582B00400FFF771FE0A4B1B78DB070ED4002809D001A912238B70A3890B80C87020680EF0FAFD02E020680EF06EFEC2
:4011800002B010BD852300208379002B07D000200BE0C25C002A07D10133DBB200E00023052BF6D9002000E001207047F0B54F464646C0B483B00600454B1B78012B00D092
:4011C00080E0444B1B789B0700D47BE00789062F01D0142F70D173899846002464E073689946A1444B461B883B4A128893424AD3394A5288934248D8062F3CD101234A4614
:4012000013750023002531E001956800401942003248821890884A469288904224D16800401941002D48085A00280AD16B00591948002A4B18180422494601F0BDFA012370
:4012400012E0012D08D8691C4800411848002349081881888A4207D04B46191D204B1B680C20FF30984701230135ADB2022D0DD8002BC9D00AE002234A461375484600F0A3
:40128000FBFD002302E0002300E00023002B09D1104B1B78DB0705D5114B1B6849461220FF309847E419A4B2444598D3094A137801218B43137005E0094B1B680021082011
:4012C000FF30984703B00CBC90469946F0BDC0465F2300208523002060230020C80C002038230020F0B54F464646C0B487B0764B1B789B0700D4E1E0058947894468734BBD
:401300001B78032B68D163E02000FFF791FD6B461880A3786A469370E01CFFF789FD6B469880631D9846152D1ED102236A469375414610226B46981D01F03EFA15239846AA
:40134000A044634B1878420012185300614AD3189A88614B9A4232D0022830D1023880B2694600F0BFFD2AE0072D28D101236A4693754046FFF75CFD6B46D880E31D984689
:40138000534B1878420012185300524AD3189B88C0225201934203D0504A934204D007E06846FFF7D9FD0AE06846FFF773FD06E0022804D1023880B2694600F093FD424A0B
:4013C000137801218B4313707619B6B2444600E00026BE4298D371E0022B6FD16BE02000FFF726FD6B461880A01CFFF721FD81466B465880201DFFF71BFD6B469880A31D7E
:401400009846062D22D102236A4693750EF0F0F9334A137850780002184349460EF088F9002807D12F490B006A4613CA13C313CA13C337E02C4B1B6800218420400098471B
:40144000214A137802218B4313702BE0082D29D101236A4693754046FFF7EAFC01006B46D88008239846A044002319E05800C018420018488218928891420FD15A00D218FA
:401480005000144A825A002A08D103001148C01804326B46991C01F08FF903E001339BB2022BE3D9084A137801218B4313707619B6B2444600E00026BE4290D307B00CBC50
:4014C00090469946F0BDC046852300205F23002084230020C80C0020FEFF000001180000702300203811002038230020F0B587B000236A465380254B1B78042B44D1244B7A
:401500001B789B0740D50689037B1375028869460A80012B01D1042700E01227456800242BE02800FFF784FC6B465880A81C1B7D022B0DD10100102201A801F03DF9123513
:40154000144B1B78012B16D1684600F0B9FD12E0FFF76EFC6B46988004350E4B1B78002B02D16846FFF7B2FC0A4B1B78012B02D1684600F0A5FD3C19A4B2B442D1D3044AC8
:40158000137801218B43137007B0F0BD5F230020852300208423002030B583B0050001AB00221A805A802E4B1B78012B0ED0002D06D00133DBB22A4A1370012B06D104E081
:4015C0000022274B1A70012500E00025244B1B78012B04D1280000F011FD01900125204B1C78012C02D0FFF747FD019001AB1B881C4A1288934209D91A4949888B4205D815
:4016000001A949888A4201D88B4201D9012CCAD9012C15D8144A137850780002184301A90EF036F8002819D0104B1B6800218520400098470E4A137802218B4313700DE0FD
:4016400005220C4B1A70094B1B680021892040009847074A137802218B43137003B030BD84230020602300207023002038230020852300205F23002010B5002804D0224A83
:4016800013780133137006E000221F4B1A7002E001331D4A13701C4B1B78022B0CD85A00D2185100194A8A5A194909888A42EFD3174949888A42EBD8022B1DD813495A00EC
:4016C000D3185A001348535A8A1851880904194303784078000218430DF0F0FF002811D00D4B1B6800210A20FF3098470B4A137802218B43137005E00422094B1A700020A3
:40170000FFF74AFF10BDC04684230020C80C0020602300207023002038230020852300205F23002010B5002804D0214A13780133137008E000231E4A13701E4A138002E060
:4017400001331B4A13701A4B1B78022B0CD85A00D2185100184A8A5A184909888A42EFD3164949888A42EBD8022B19D85A00D3185900114B5918124A137850780002184395
:401780000DF0B8FF002811D00E4B1B6800218420400098470C4A137802218B43137005E003220A4B1A700020FFF766FF10BDC0468423002038110020C80C00206023002059
:4017C0007023002038230020852300205F23002030B587B00400244B1B78022B42D1234B1B88002B3ED0214DA91C0422684600F0E3FF6168228901A800F0DEFF684600F044
:401800003BFB2B8801339BB26A461380184A127851008A185100174A51184A8869464A80934214D8144A13785078000218430DF061FF00280ED0114B1B68002184204000A0
:4018400098470F4A137802218B43137002E00120FFF768FF0A4A137801218B4313700022024B1A8007B030BD5F2300203811002084230020C80C00207023002038230020DE
:401880008523002030B587B00400244B1B78022B42D1234B1B88002B3ED0214DA91C0422684600F089FF6168228901A800F084FF684600F0E1FA2B8801339BB26A461380B5
:4018C000184A127851008A185100174A51184A8869464A80934214D8144A13785078000218430DF007FF00280ED0114B1B6800218420400098470F4A137802218B431370B0
:4019000002E00120FFF70EFF0A4A137801218B4313700022024B1A8007B030BD5F2300203811002084230020C80C002070230020382300208523002010B51D4B1B789B0784
:4019400034D51C4B1B78022B16D0DAB2022A02D8012B05D02AE0032B17D0042B1ED025E00222144B1A700020FFF7DCFE104A137801218B43137019E00120FFF7D3FE0C4AF1
:40198000137801218B43137010E00120FFF774FE074A137801218B43137007E00120FFF7FBFD034A137801218B43137010BDC046852300205F23002010B5054B1B789B0799
:4019C00004D583790A2B01D1FFF7B6FF10BDC04685230020F0B583B004000D00CA4A117801230B43DBB21370412800D174E126D8242800D1EDE010D8052800D1A8E005D8FB
:401A0000012844D0022800D19EE0E1E1062800D1A2E0212800D1B4E0DAE1282800D1E6E006D8262800D1E6E0272800D1D5E0CFE12B2800D118E1402800D1ADE1C8E1492817
:401A400000D1B8E111D8452800D196E106D8422800D183E1432800D183E1B9E1462800D18FE1472800D193E1B2E1532800D197E106D84B2800D1A2E14C2800D179E1A7E121
:401A8000582800D181E1FA2800D19CE1A0E101AE0727377000237370300002F0F9FE377001237370300002F0F3FE00F0FDFE974B1E683000FFF768FB00280CD0300000F01E
:401AC000FFFE924E00213068FFF764F930680121FFF760F92AE08E4B1F788E4B18788001FC263601020032403F21394011438A4B1B781B03F822520213401943874B1B788E
:401B00005B04FE22120413400B43854E33701A0A72701B0CB370300000F0D2FE00213000FFF738F901213000FFF734F900200CF0EBFD01A83F230370002343700CF002FE78
:401B40000622784B1A7043E12800FFF7B3FA3FE12A78754B1A703BE12B78002B00D037E16B78002B07D1714B0022DA839A83704A9A6118336B60644A137801218B4313706E
:401B800026E1614B1B789B0600D521E1694B1B7D102B02D10522674BDA75674B1878654914310CF003FF01AB1880002804D0634B1B6801A936209847534A117801230B43CA
:401BC000DBB213705C4B18785A4914310CF066FBFEE06A785A4B1A70FAE05A4B1B88002B01D009F071FE02224E4B1A70F0E006224C4B1A70ECE04B4B1B78022B00D1E7E0CA
:401C0000414A1278D20700D4E2E03F4A1278520708D50322434B1A703B4A137804218B431370D5E0384A1278120708D506223D4B1A70354A137808218B431370C8E0032BC9
:401C400000D0C5E00622374B1A703F4B1B78002B00D0BDE00120FFF755F8002800D0B7E00322304B1A70B3E02E4B1B78022B00D1AEE0254A1278D20700D4A9E0224A127899
:401C8000520707D50421274B19701F4A13788B4313709DE01C4A1278120708D50622214B1A70194A137808218B43137090E0042B00D08DE006221B4B1A70244B1B78002B80
:401CC00000D085E00120FFF767F8002800D07FE00422144B1A707BE0174F02222900380000F06AFD0026104B1E7039783D31FF314900174B591801310222164800F05CFDBF
:401D0000154B1E7064E0C04685230020200C00207CF1FF0F7DF1FF0F7BF1FF0F78F1FF0F240C00205E2300206C23002038110020A00B0020C80C0020702300203823002079
:401D40003C2300205A2300208323002082230020806801005C2300205F230020FFF7E8F836E06988162900D9172128880EF008F82EE02800FFF7ECF92AE02800FFF716FA6E
:401D800026E02800FFF7AEFA22E0FFF7D5FD1FE02800FFF7ABFB1BE02800FFF70DFE17E02800FFF7ADF8134B1B78DB0710D428680DF066FC0CE02800FFF70AFD08E0280025
:401DC000FFF760FD04E00C4A117801230B431370084B1A7811231A4209D0064A137801218B431370054B1B6829002000984703B0F0BDC04685230020342300203823002021
:401E0000F0B5002630E03000B31C5A00D3185A00174BD35A002B1ED024E00301154AD318DB682C011B1900221A80002308E0D7685900C9188A00BA180021118001339BB2BC
:401E400002010C498A18D2681219917A8B42EED30135ADB200E000250301064AD3185B7A9D42DAD30136B6B2002ECCD0F0BDC046C80C0020E40C0020F8B506000027002412
:401E800024E025002301144AD3181B7A022B1BD1311D2301D3185868102200F07EFC002812D102356B005B195A000C4BD35A002B0AD10A4B98180422310000F07DFC084A09
:401EC00013780133137001270134A4B2002C01D1002FD6D0F8BDC046E40C0020C80C002084230020F8B54F464646C0B406000F003E4B1B68002B09D03C4A9288824202D1F6
:401F00000A88013A1A800022384B1A6000239846002450E0BD7D022D12D13301344AD318DA682301D3181A7A022A0CD1B91D58680E3200F032FC002808D00023994607E012
:401F40000023994604E00023994601E001239946012D11D13301264AD318DA682301D3181A7A012A08D1B91D5868013200F015FC002801D1012399464B46012B19D133016B
:401F80001B4AD318DA682301D2181188002910D1B98811803101164A5218D168C918B8784872D268D3180233104A13609680012398460134A4B233010D4AD3185B7A9C4219
:401FC00002D24346002BA5D0084B1968002908D0084B1B785A00D3185A00074B9A1853880B800CBC90469946F8BDC04658110020E40C002084230020C80C002030B583B07C
:4020000000236A461380538000281CD0284AD3885C1C11890A01274DAA18527A944202D2234AD48014E04A1C05D1214B013119810022DA800CE020490A7801320A70013360
:402040001B4AD38004E01A4B00221A81DA80012017490B891A01174CA218547ACA8894420BD91B011349CB18D9681301CB18198801316D4629805B886B806B461B880F49E5
:4020800009888B4209D90D4D6D88AB4205D86D466D88A94201D8AB4201D99442B4D8009B180C00041B041B0C184303B030BDC04658110020E40C0020842300206023002025
:4020C000F8B54F464646C0B4060000239846002542E0377D022F12D16A0052199300E268944663441A7A022A0CD1311D58680E3200F053FB002808D00023994607E0002320
:40210000994604E00023994601E001239946012F11D16A0052199300E268944663441A7A012A08D1311D5868013200F036FB002801D1012399464B46012B0BD1E1686A006E
:4021400052199300CB181A88002A03D172881A80012398460135EDB2094A13891B010949CB18DB68D48824011C19A37A9D4202D24346002BADD00CBC90469946F8BDC04601
:4021800058110020E40C002004490A687F231A40C301D8B2104308607047C0460003044004490A68D2B240239A4380011840104308607047000204400230800803D00138E4
:4021C000FDD1C046C046C0467047EFF3108072B6704780F310887047044B1B681F221340082BF9D0024B18607047C04608022440400224400160704701607047324B1A78FE
:402200001202324B1B781A43314B1B781B02314909780B4330498B4201D1072A06D0D42109018B4206D1042A04D102E02B4B042200E02A4B2A490B602A4B1A602A4B1B783B
:402240001B022A4A1278134380229201934202D0002B02D002E0264B00E0254B254A1360254B1B781B02254A12781343244A934205D0244A934204D0052B05D103E0224B9B
:4022800002E0214B00E0204B204A1360204B1B681B09204A1268AA2A15D1012B13D9164B1B780E2B0FD11C4B1B781B021B4A127813431B4A13601B4B1B781B021A4A12789B
:4022C00013431A4A13607047D9F0FF0FD8F0FF0FDFF0FF0FDEF0FF0F580B0000580D00006C002E4074002E40DBF0FF0FDAF0FF0F0220000078002E40DDF0FF0FDCF0FF0FA2
:402300000F0F000005050000050F000080002E40EC0F00F0E00F00F06DF2FF0F6CF2FF0F84002E406FF2FF0F6EF2FF0F94002E4010B5FEF721F910BD10B5FEF705F910BDD9
:4023400010B500F04BF810BD10B500F04FF810BD10B500F04BF8034800F02AF8032000F02DF810BD1924000010B5024800F046F810BDC046192400000220FF307047C046DD
:402380002B2070472B2070472B2070472B2070472B2070472B2070472B2070472B2070472B2070472B2070472B2070477047C046014B18677047C0460000002010B50400D9
:4023C000FFF703FF044A1368C0218B43A4011C431460FFF7FEFE10BD0CE400E080225201014B1A607047C04600E100E080225201014B1A607047C04680E100E010B50400AB
:40240000FFF7F4FF2000FFF7D3FF0320FFF7D6FFFFF7E4FF10BDC04610B513F073FC10BD002243088B4274D303098B425FD3030A8B4244D3030B8B4228D3030C8B420DD31E
:40244000FF22090212BA030C8B4202D31212090265D0030B8B4219D300E0090AC30B8B4201D3CB03C01A5241830B8B4201D38B03C01A5241430B8B4201D34B03C01A524117
:40248000030B8B4201D30B03C01A5241C30A8B4201D3CB02C01A5241830A8B4201D38B02C01A5241430A8B4201D34B02C01A5241030A8B4201D30B02C01A5241CDD2C309E7
:4024C0008B4201D3CB01C01A524183098B4201D38B01C01A524143098B4201D34B01C01A524103098B4201D30B01C01A5241C3088B4201D3CB00C01A524183088B4201D340
:402500008B00C01A524143088B4201D34B00C01A5241411A00D20146524110467047FFE701B5002000F0F0F802BDC0460029F7D076E7704703460B437FD4002243088B426A
:4025400074D303098B425FD3030A8B4244D3030B8B4228D3030C8B420DD3FF22090212BA030C8B4202D31212090265D0030B8B4219D300E0090AC30B8B4201D3CB03C01AA8
:402580005241830B8B4201D38B03C01A5241430B8B4201D34B03C01A5241030B8B4201D30B03C01A5241C30A8B4201D3CB02C01A5241830A8B4201D38B02C01A5241430A6D
:4025C0008B4201D34B02C01A5241030A8B4201D30B02C01A5241CDD2C3098B4201D3CB01C01A524183098B4201D38B01C01A524143098B4201D34B01C01A524103098B426E
:4026000001D30B01C01A5241C3088B4201D3CB00C01A524183088B4201D38B00C01A524143088B4201D34B00C01A5241411A00D201465241104670475DE0CA0F00D049425C
:40264000031000D34042534000229C4603098B422DD3030A8B4212D3FC22890112BA030A8B420CD3890192118B4208D3890192118B4204D389013AD0921100E08909C3097B
:402680008B4201D3CB01C01A524183098B4201D38B01C01A524143098B4201D34B01C01A524103098B4201D30B01C01A5241C3088B4201D3CB00C01A524183088B4201D37E
:4026C0008B00C01A5241D9D243088B4201D34B00C01A5241411A00D20146634652415B10104601D34042002B00D54942704763465B1000D3404201B5002000F005F802BD9F
:402700000029F8D016E770477047C046014B18687047C046E01000200E4B70B500251E000D4CE41AA410A54204D0AB00F35898470135F8E713F042FC084B00251E00084C02
:40274000E41AA410A54204D0AB00F35898470135F8E770BDC85F0100C85F0100C85F0100D05F0100931E10B50C00222B02D9002008700DE00A2A06D1002804DA2D2340421B
:402780000B70012100E00021611800F027F8200010BD10B5FFF7E6FF10BD30B50024A24208D0035D651C0C5DA34201D0181B02E02C00F4E7002030BD002310B59A4203D014
:4027C000CC5CC4540133F9E710BD03008218934202D019700133FAE770470000F0B58FB0170006000C002522184904A8FFF7E4FF0020BB1E0500222B01D9207023E06B1CA6
:402800000293E31801933000013B39000393FFF78DFE04AB5B5C039A300013703900FFF7FFFD061E01D0029DE9E7019B187023001A1B954206DD1A78615D19706255013379
:40284000013DF5E720000FB0F0BDC046945F0100134A1088810703D08107890F401A001D11791030484381B25088820703D08207920F801A001D800040180A494030098907
:4028800080B2CA0701D0503080B2890706D504495422091F09785143081880B270470000160D00207011002010B501F011FF10BD10B501F013FF10BD10B500F05BFA10BD3B
:4028C00010B50749044609780220002907D1204601F054FF002802D120460CF019F810BDC20E002070B504460120002C12D02368002B0FD0616800290CD0074D06222889D2
:40290000208118462968FFF757FF6968606809780170002070BD000070110020FFB585B0002768460E9D07734F481C460078002802D0082009B0F0BD10990F9801900095F0
:40294000029105A807C800F007F90028F2D16946264603AB84460873002C19D0002115E08A00B75A082F09D990198078002805D0083FB7521878401C187005E0002914D02C
:402980000027B75290198770491CC9B2A942E7D360460028CED10F98002809D0109901F047FA002804D00120C4E701208446EFE701F094FE2D4800214160816005990160AF
:4029C00021888180022D07D3A1798171A17AC171A1890181218A418100211EE0481C19E082008B00A75AE65ABE46BE4211D26F463E80B4461E190296B678BE700196764616
:402A0000E6521719029EBB78B3706646A652019EBE70401CA842E3D3491CA942DED3134822460C3000906846037B0799069800F01BF90028B8D168460B4C007B60700B4879
:402A40000C3001F07BFE0028AED1084907480C3108F0F0FE0028A7D108F00AFF0028A3D10121217066E70000100D002064110020F8B5054636480F460078002802D00224D4
:402A80002046F8BD002F60D000243249002D16D02A89D0070DD02868002808D003881B3BE12B04D24088FB2801D81B2801D2012409E0900707D56868002804D1F7E700200A
:402AC000088108604860002CDAD122482E8906811F481B21801D01804180042101711C490020891C0870F00705D019480622801D2968FFF761FE1749B00703D56A6814480E
:402B000012788270124D0E46AD1D281F0D60486001F05AFE284601F049FE30890FF07EFD30890EF09FFE28880EF0A2FE30890FF0F5FE03461033FFF78BFE1F21C018890124
:402B400040183880A91F88809AE7012498E70000100D002070110020FFB58446384F1C460020BB883F78054602460646002F11D100290ED0029999420BD36146002908D0FE
:402B8000002C06D00A99002906D02E4B0B99994202D2012004B0F0BD002144E0AB001F19BF78002F3BD0E35A002B38D07B43591889B22B0000F04AF8050410161C253100B2
:402BC000A7782388BC46FF27233BEB37BB4222D26346032B1FD322E0A388002B1FD0302B19D31CE02389002B19D0282B13D316E0A289002A13D01346134F233BBB420AD206
:402C00000DE0268A002A0AD033460F4F233BBB4201D2964203D901200EE0002001E000280AD16D1CEDB2099B9D42B7D31C2463435B1802998B42ACD89642AAD8AAE70000C2
:402C4000100D002079020000BAFF000030B47446641E2578641CAB4200D21D46635D5B00E31830BC18470000FFB583B0002469460C801F4606468C80002806D0059800285D
:402C800003D004983043800701D0012466E0002FFBD03449049809888842F6D3FFF764FBFFF752FB00F016FC002855D100F07EFD002851D12C49084601F0EEF805042D0CBF
:402CC0004AD12A480499066081800021C18007810C98007AC00704D0684601F018FD040007D10C98007A800703D501A801F018FD0446BF1DFEB2002C20D13146059800F0ED
:402D00005DF804001AD10FF017FE040016D16A461088928808368518144AF1B29088D288AEB29319984207D3401B801A80B201F0A3FB050007D000E0FF25012400F062FAD9
:402D4000002D04D008E0F8B200F01CF9F6E700F085FA07490120087000F0CEFB204607B0F0BD0000140D0020A92E00007C1100201C0D002010B503480078012801D101F081
:402D80001DFA10BD1C0D002070B5084B0446DA889E8803205518B54206D8186880182060D8884018D880002070BD00007C11002001480089704700007C110020F0B587B083
:402DC00007460D4600208900009006916846FFF7DBFF844600285DD1304800990160002117E02E4B88001A680629115406D22C4C0419667882185670628805E0C419203C71
:402E0000A67A8218567022891B68C018491C4280C9B2A942E5D300242DE0601CC2B2059025E01E4FA30039689600581840887118039604904E88B04217D938466F46FE806E
:402E4000B6464F786E4677710297049F4F800168039F5E18767879184E700168764659184E800068029F18184770521CD2B2AA42D7D30598C4B2AC42CFD36046002809D103
:402E800068460699FFF780FF8446002802D1054900980860604607B0F0BD0000200D0020F05F0100240D00207047000010B5002809D005494A68002A05D0011F08788000A9
:402EC000105801F087FA10BD200D002010B50446FFF76EFFC0B2801DA0420CD307484068002808D0A100405801F0E6F9002801D00470001D10BD002010BD0000200D00200B
:402F0000F8B516460D460446FFF752FFC0B2801DA04203D20020C0430090F8BDB2B2E9B2684601F0EFF90099481C03D0024AA000526811500098F8BD200D0020F8B5074685
:402F4000FFF736FF801DC6B20A49002005460C680DE06178002907D06188B94202D32078FFF7B4FF002804D1241D6D1CEDB2B542EFD3F8BD200D002010B5002801D0FFF74A
:402F800095FF10BD70B506460948002504680BE06178002905D062882078121D0023FFF7AFFF241D6D1CEDB2B542F1D370BD0000200D0020FFB581B00A9F16000C4620D09F
:402FC00000F0F6F8054604281BD0002F0CD03846FFF7B4FF20492A0151184860002810D03A460499FFF7E8FB1B4928010E504618778101980570200406D47D20C00044438B
:4030000004E0FF2005B0F0BD6404640C00F0BEF80746042807D000F053FAA0420BD800F04FFA201A03E0204600F0AEFA0020F06035720020E6E700F043FA009000F0BAFAA2
:4030400000980121001B009000F0F0F802493A0151180098C860E6E788110020F8B5042801D3FF20F8BD060116483418217A042903D0E068002802D017E00020F8BD00F013
:403080001FFA054600F096FA00F0A0F804280CD001010C480F18F8680021451900F0C6F80020F860284600F06FFA6068054D002801D0FFF761FF042020720020A85160813A
:4030C000E060DAE788110020FEB500266A46304601232549050169180D7A042D02D0C96800291BD000211154401CC0B20428F0D300246846005D002830D01B4821010818F0
:403100004189476805680291002101604160042241810272C160002E02D015E01354E3E700F054F804280ED001010F4808180190C6680021304600F079F801980021C160FF
:40314000304600F021FA0126002D07D038460299A847002F02D03846FFF70EFF641CE4B2042CC6D3FEBD0000881100200EB5002005216A46009011815081034869460068B8
:4031800010F04FFA0EBD0000280D0020074A0020010189180B7A042B02D0C968002903D0401CC0B20428F3D370470000881100200549002002015218127A042A03D0401CEB
:4031C000C0B20428F6D370478811002030B50A4B04200A4C00210A011219157A042D06D0D268002A03D09A4201D808461346491CC9B20429EFD330BDFFFF00008811002051
:403200007047000030B50020074C05460423020111190B72A5504D60401C4D81C0B2CD600428F4D330BD00008811002030B5094C00231A011219157A042D04D0D5680029C2
:4032400006D02D18D5605B1CDBB2042BF1D330BD2D1AF7E788110020002070471CB5002469460C70142001902346054A054810F0DDF904480068401C00D1FF2420461CBD62
:40328000D9320000280D00203EB5124A0146FF2000230124126800290DD0012914D0042908D104206946009308814B81104610F0B8F980B23EBD68460093048143816946F5
:4032C000104610F0A9F9F4E768460093048143816946EBE7280D002070B545890468416800890300FFF7B2FC08280509091E22282628002006F0B4FF1EE0022908D0C8B222
:403300002A4621460EF002FA2046FFF735FE13E002202A4621460EF0F9F92946204600F00DF809E000200FF07BFE05E02046FFF7CBFE01E0FFF73AF8002070BD014B002238
:40334000DB6818472C0D002070B5448905680089022803D0032809D0FF2070BD2246094C0023A46829460120A04708E0FFF7A0FA241DA2B200232946022008F00EF90020DA
:4033800070BD00002C0D0020704700000248002141600180418070472C0D002070B50C46002186B016460391012802D0022859D116E003A9012008F045F901281BD1039DB7
:4033C000324621462846FFF7F7F90095287801900220694608814E816846FFF7B5FF41E0214D002B686809D0049004A9022008F029F901281DD0022006B070BD002812D04E
:40340000298840182146FFF7D7F928880024801980B228806988091D884206D12C801348FFF792FF03E00320E6E788421AD96C6018E004986860E278A378110219430B4AD8
:40344000698000231060E3565360032313815181A1788170E178C1706178417021780170042028800020C7E72C0D0020C81100203EB515460C46022803D004280CD000207F
:403480003EBD0091019002206946088107484A81006810F0C6F807E00EF038F9044B0022DB6829462046984701203EBD280D00202C0D0020014AD160906070472C0D002091
:4034C000034801688068081A0A21484300097047D411002010B5FEF73BFF4C2204490548FFF76AF903490120C870002010BD00000C600100D815002010B5FEF721FF10BD8B
:4035000070B5134C2368002B08D0207B1149C20705D04008400020738868A08070BD88680B4AA18880B29268814203D90A4D691A091802E0814202D2411A5118A160A080FC
:40354000A0689842EAD310F089F800F013F870BDD4110020C0102E40FFFF000010B508461946FFF7A7FF10BD704710B5FFF780FF10BD000003480021016041608160C160B9
:4035800070470000D4110020024610B5FF20002A0CD0FFF7EFFF064C0321207B0843207310010A21FEF7C2FF2060002010BD0000D411002000B504480A218068484302093C
:4035C000FFF7D8FF104600BDD41100200248007B8007C00F70470000D411002010B54B490868002802DA4A4B01221A70022290430860484800694549C00B4031096A024623
:40360000C907C90F0A4259D0012000F097FA3F480E216C30FEF7F0FD3E4820218430FEF7EBFD3C4814219C30FEF7E6FD3948FF21C131A430FEF7E0FD3648FF212F31B030CB
:40364000FEF7DAFD33483449BC30FEF7D5FD31483249AC30FEF7D0FD30492E48491CB430FEF7CAFD2B482E49B830FEF7C5FD29482C49CC30FEF7C0FD26482B490830FEF721
:40368000BBFD24482949A830FEF7B6FD214828498830FEF7B1FD1F4826498C30FEF7ACFD1C481921C9029030FEF7A6FDFEF7A6FDFEF762FEC0B2022812D01FE000290BD060
:4036C000002101420AD0114801216030FEF794FD0120FEF731FE97E70121F2E7FF2010BD15491648FEF788FD14481549001DFEF783FD124800210830FEF77EFD54200449EB
:40370000C043891C0870002010BD000000F02E403C0D002000002E40320300002F3F00003102000010520000EC160000FA12000031D000003AE300009956000080012E4005
:40374000F80F000070B50646581C80B245086D00002408E0304600F0C1F81055000A1119A41C4870A4B2AC42F4D3D80705D0D0182038D15CC47FD454C17770BD30B50A4CFE
:40378000002100195B1E07E0541864782502545C2C430480891C89B29942F5DB994201D1515C018030BD000000102E4010B5FF2000F0C4F90F49FF2048700E481021801DA8
:4037C00041800121417001700A490020C91C4870FFF704FF04000AD100F010F907210648FEF708FD044807211830FEF703FD204610BD00003C0D0020CC112E4070B5002492
:4038000005465B1E0AE0284600F068F8010A161971702D1D1055A41CADB2A4B29C42F2DB9C4203D1284600F059F8105570BD000070B500210A4D5B1E0AE0541864782602CF
:40384000545C344346193480001D891C80B289B29942F2DB994202D1515C4019018070BD00102E40F0B50599091FCFB200217E1E0BE0541864782502545C2C43164D451974
:403880002C80001D891C80B289B2B142F1DBFC0712D01C78515C24020F4A0C4381180C809C785D78001D210280B2294384182180001D80B2D9780CE059781A780902114303
:4038C000054A84182180001DD9789B78090280B2194380180180F0BD00102E40014940180088704700102E4010B50B490020487000F084F8002000F047F9002000F034F995
:4039000007210648FEF776FC044807211830FEF771FC002010BD00003F0D0020CC112E4010B50B46062812D006DC01280CD0032801D1FFF7D9FF10BD0A28FCD00B28FAD147
:4039400005480078107010BDFFF730FF10BD1146184600F035F910BD420D0020F8B5244DAC6A0127A007234E002816DA307806280ED1286A384328621F480069F903084345
:4039800081B21D481030FEF737FC042000F0D6F8174802212830FEF72DFCE00718D000F01FFF01280FD1002000F06CFF062000F0C5F81049FF20C91E48707078002802D1FF
:4039C000686B384368630A4801212830FEF712FCE0050BD53078042802D1052000F0AEF80348FF2101312830FEF704FCF8BD000040F02E403F0D002000002E4010B50321B8
:403A00002348FEF7F9FB0120FEF792FC20483038406A204C80076178800F890001431C480C38FEF7E9FB6078002808D0401E022181401820FEF764FEC000083800E0B8200A
:403A400081B21548FEF7D8FB1348032109021438FEF7D2FB10481149B830FEF7CDFB612189010F48FEF7C8FB0D480321001FFEF7C3FB0C490C48FEF7BFFB0B480B49603802
:403A8000FEF7BAFB084801218838FEF7B5FB10BD70F02E40420D0020D8102E4090890000041E2E40FF0F000058122E40209000000848017806290BD140780749002803D10E
:403AC000486B400840004863C86A01221043C862704700003F0D002040F02E4001480078704700003F0D002000B50300FFF7AEF8080D050D0B070507090D012000BD0320B9
:403B000000BD042000BD022000BDFF2000BD0000074A9168D26889B2064B92B2994204D105498A4201D1012100E000210170704780002E4033D000003FE3000010B50446CF
:403B4000FEF702FC072C01D9FF2C01D102480470FEF7F6FB10BD00003F0D002001494870704700003C0D002010B5064A012805D01921C9021046FEF73FFB10BD1D21C902D6
:403B8000F8E7000090002E4010B50A4A141D012808D009491046FEF72FFB08492046FEF72BFB10BD04491046891CFEF725FB0349491DF3E788002E4031D000003AE300007A
:403BC00070B50C460546FEF7D7FBC0B202280E49287804D0FF2810D04C280CD810E0FF2809D10A4AD0680004800F032801D0087807E09069000A553803E00878207070BD53
:403C00004F382070087070BD3E0D002000002E40F0B50122002834D0002932D00424420600D00524792342065B06D21800D0641C034600221EE00C2516466E43124D0027BB
:403C40007519AF72104F002ABB51696007D0661EB24209D10D4E86197606760E05E05E06760E8027BE1B00E080269B198919521C2E81D2B2A242DED303480549006B00228F
:403C800088611046F0BD00006014002079020000480D002018B50020694608700A48006900280ED0132149014018047E684604704F21C900054800F05BF8A04201D00120A8
:403CC00018BD002018BD0000480D0020E4110020074900200C2242435218927A012A05D0401CC0B20628F5D3002070470120704760140020F8B50F000446164609D01A4D2E
:403D00001A496868A04202D94018A04201D38E4201D90120F8BD39462046FEF73EFD002820D0324639462046FEF746FD0E49F0B2012620318E7600210C220B4653430A4A44
:403D40009A1813895568EF18A74207D9641B1B1B9672834206DAC01A1469C0B2491CC9B20629E9D30020F8BD6014002079020000034610B50020024604E09C5C2018521C96
:403D8000C0B292B28A42F8D310BD000070B500F05FF8084C064A216907480D46FEF70CFD05492846FFF734FFFFF774FF207070BD79020000480D0020E411002000207047C8
:403DC0000020054A002902D0012902D002E0906000E0D06000207047480D002070B5084C154608460549E26889182A46FEF7E4FCE0684019E06028B270BD0000E411002092
:403E0000480D00203EB50A226946FFF7E7FF044606480A2200686946FEF7BFFC002802D00020C0433EBD20463EBD00004C0D0020002802D0044A914201D2FF2070470349D6
:403E40004A6108610020704779020000480D0020024800218160C16070470000480D002070B5074C15460548A26880182A46FFF741FFA0684019A06028B270BDE4110020E9
:403E8000480D002010B503490A220968FFF7E8FF10BD00004C0D002010B50F4A002313600E4A13600E4B18600E4801600E49012008600E490860000290600E490C48086011
:403EC0000D4914300860FF381538506000F0BCF800F0CAF9002010BD7C0D0020640D0020900D0020940D0020800D0020700D0020A8150020740D0020880D0020014610B507
:403F00000020002910D0094B1A689C685118A14209D25868196080188A0704D08A07920F891A091D196010BD002010BD640D0020F8B50024164E671E321F3D4631681368C0
:403F400006E01422624310328A58521C1BD0641C9C42F6D36A1C14D02C461422544322460C3288500C214843FFF7C8FF3168002808510AD031680020103408517068401CC2
:403F800070602846F8BD2546E4E73846F8BD0000740D0020F3B50026F64381B000281BDB1E490968884217D80299002914D01B4F142204463F1D54432546396810354859A6
:403FC000401C09D0FEF7C0F938682F1F4159C359994203DBFEF7B4F93046FEBD214608310091465801590C20704308180C220299FEF7E2FB0948761C001D0068C159B14276
:4040000000D100260549009A091D865008684159491C4151FEF794F90020FEBD700D0020002803DB07490968884202D90020C043704704491422091D096850431030085817
:4040400070470000700D0020F0B500200D4A451E0346171F50600FE014260146714314680E1DA3510C461668083433511668083435511468401C635039688842ECD30020DA
:40408000F0BD0000740D0020F3B50026F64381B0002841DB2349096888423DD8029900293AD0204F142204463F1D54432546396810354859401C2FD0FEF746F9386841590F
:4040C00000292BD0211D009146580C21005971430F46C1190C220298FEF76EFB11480021001D0068761C00590C34C0190160416081600C48001D00680159B14200D100269D
:404100000849009A091D865008684159491E4151FEF716F90020FEBD3046FEBDFEF710F9FAE70000700D0020FEB504460D4600201E49089E0860471E009001900290002CE0
:4041400011D0486885420ED2002A0CD0002E0AD0642E08D808460C3001681C2068430C18207A002801D03846FEBD0120226020721846FFF7DDFE6060401C13D06681A6814C
:404180000A4827610C3067610179A94200D205710021684601810A462846029B00F040F82846FEBD00202072DDE700007C0D002038B50124009400F039F838BDFEB50027C2
:4041C000164EFF433D4600240EE01C20316860430818017A002906D04068FFF721FF002801D0254603E0641C3079A042EDDA681C12D01C2130684D434419FEF7A5F8694632
:404200006068FFF741FF0546FEF79AF8002DD9D1216868468847D5E7FEBD0000880D002038B50024009400F001F838BD1FB500220C49541E0A60002811DB496888420ED886
:4042400008491C220C31096850430818406801A9FFF7A0FE401C02D0002004B010BD2046FBE700007C0D0020F0B50021114A4D1E174611710C3F0B46BD6016E008461C2400
:4042800060431668041D355114680646235014680836A3551468361DA353044616680A34335318301468491C255078688142E5D30020F0BD880D002038B5002100910028B6
:4042C00011DB0F49097888420DDA0D4D04010C3529680859002807D0201D0818694600F06FF9002801D0002038BDFEF72DF828680F34015D491E0155FEF722F8009838BDA1
:40430000980D0020F7B582B0002502986E1E06602E48D21C024017462D4A2C4610460C380178106805E02301C358002B0FD0641CE4B28C42F7D3711C28D03401211D401886
:404340000191039900F02AF900281FD101E02646F1E71F48016820460C300F521C480399026820460E30115419480399026820460F3011540398784300F0A0F814490028A5
:404380000968085102D00024009011E001251AE00F48016801980818009900F02CF9002801D0012502E00098C0190090641CE4B203988442ECD3002D05D1029806600448EE
:4043C0000179491C0171284605B0F0BDFCFF0000A40D0020F8B50D4600216A468C461180002839DB23490978884235DA214B04010C3319680A59002A2ED020460C300B5AD7
:40440000801C0E5C184670438018954224D3854222D2002006E007465F43BF18AF4206D0401CC0B2B042F6D36046002814D0114E271DC8190C366A46294600F006F900287A
:404440000AD168460088012808D030682946C01900F0D1F8002803D00120F8BD0020F8BDFDF772FF30680F34015D491C0155FDF767FFF3E7980D0020F8B50F46002400F083
:4044800031F8002817D10C4900220B460C334A600EE021011D680E466A501D680C36AA53B61C1D680F31AA551D68641C6A54E4B2BC42EED31A71F8BD980D002000280BD0F5
:4044C000C01C074A81085068890053884118994203D89368516018187047002070470000980D0020F8B5064600200F4D009029700C0121466846FEF747FC00280CD1294640
:404500000C3100980860301B001F84B221466846FEF73AFC002801D0FF20F8BD6C800098A8600020F8BD0000980D0020F8B5002827DB19490978884223DA174C05010C3441
:404540002168485900281CD028460C30085A009028460E300E5C401C0E5420682F1DC01900F064F800280CD12068002445590EE0094829460C300068C01900F03CF80028CE
:4045800001D00120F8BD00982D18641CE4B2B442EED30020F8BD0000980D002030B50D4604000BD0A800FFF789FF6060002805D000202570C0436080002030BD012030BD63
:4045C00070B50D46040005D0002D03D00220205E002801DA012070BDFDF7B6FE0221615E60688900405828606088401E6080FDF7A7FE002070BD70B50D46040007D0002DF2
:4046000005D002212078615E401E814201DB012070BDFDF799FE6088401C00B26080616880000D50FDF78CFE002070BD10B5040009D0227800216068FEF7C7F80020C04312
:404640006080002010BD012010BDF0B500231D46002802D00224045F0AE00120F0BD46689F00F6598E4201D1012503E05B1CDBB29C42F4DA15700020F0BD0000014800780F
:4046800070470000AC0D00207CB505460024FEF70FF9A8796946087000A8062229460130FEF78AF80021684606F0ACF80C2806D0072806D01F2806D0122806D006E00224ED
:4046C00004E0042402E0272400E0012420467CBD0148012141727047E416002010B500F075F9FFF7FBF9FFF7FFF910BD70B504460025FEF7DDF8002C06D0A079012803D8A9
:40470000214603F073FA00E00125284670BD01460120002902D05020088000207047000001460120002905D003485422007850430880002070470000AE0D002010B5024666
:404740000D49FE204870032410460FF08DFA002810D10FF031FA00280CD106F0CFFF002808D100F035FB002804D106F04BFB002800D10024204610BDAC0D002070B5002541
:40478000044600280ED0A07901280BD8FEF790F8A0790028204602D003F012FE03E003F0E7FD00E00125284670BD0000014610B50120002904D006220248FDF7FDFF002084
:4047C00010BD0000B80D002001460120002903D0087802490870002070470000AE0D00200148007A70470000E416002038B504460120002C20D0617801291DD800290BD0AA
:40480000FF25E535FEF754F80C4828180088C0B22070072803D00EE0FF25CD35F2E70020694608706846FFF773F969460878012801D108202070002038BD000000102E4020
:40484000014A002192681047AC0D002008B500226B461A7026280CD0094A342852680BD0352805D1900703D50021352007F022F808BD19462620F9E7D007F9D03420F5E7D7
:40488000AC0D00200149087270470000E4160020F8B504460120002C26D06178012902D92278092A20D8002905D0FF25E5352078092803D004E0FF25CD35F8E70820207034
:4048C000FDF7F6FF2078114F114E08280DD00020FFF75AF970780128207810D00D4969180880FE2070700020F8BD0120FFF74CF90720B8810549203188800120F2E7B881B1
:404900000248217820308180EBE70000C0112E40AC0D002000102E4070B50E46050001D0002400E00C4C002C11D0E28A500609D5D107C90F022003F035FEE08A40218843F5
:40494000E08204E0D107C90F012003F02BFE3146284603F077FA70BD44160020F8B50546002004460D4E009013E022466946284601F014F90098002801D00FF057F9A87851
:40498000214603F057F8A878214603F045F8641CE4B2308AA042E8D8F8BD000010170020064A02235188891C89B25180814201D8102900D95380508870470000BE0D00202F
:4049C0000148407870470000BE0D002038B51E4CFFF784F8042813D0052811D0062812D003282AD007280AD100206946087002460120FEF795FFFFF771F80128FBD138BD6D
:404A000000F010FC38BD03F095F800F00BFC03F00FF98007800F0228F4D10C4841880029F0D05B21095D0029ECD101210170A07D0140022003F0B6FD38BD03F07FF8012007
:404A4000FFF77CF838BD000044160020D60D0020F8B50646002403F013FE0546304603F029FE03460A480021068A0DE001228A401046174628401F40002803D0002F01D1C2
:404A8000224394B2491CC9B28E42EFD82046F8BD101700201CB50020694648706846FFF7A5FE01AA69460A20FEF73AFF6946042008561CBD70B50D4601F0A0FD04000BD032
:404AC0002079002808D0FDF7F3FEE178A0782A4603F066FA002070BD022070BD0148007970470000181600204030C07E002800D00120704700B500F001F800BD902148438C
:404B00000749084A40186030417F491CC9B24177D289914201D300214177C8B270470000241600201017002013B501F067FD04000BD002F0F8FA002807D0214601AA0A31BA
:404B40000620FEF7EDFE00201CBD02201CBD000010B50C4601F052FD00280AD002F0E3FA002806D0224604490A20FEF7D9FE002010BD022010BD000005160020F3B581B07A
:404B8000074601460026029803F072FD0446002F01D0002500E0154D002D21D0284601F063FD032C04D13946029803F0BDFD06463846029902F030FF032C06D0002C10D050
:404BC0000121384601F040FF03E03146384604F089F8284602F0F2FD0221284602F008FEFEBD3846029902F017FFFEBD4416002010B5044600F0C0FA002804D105F044F9C7
:404C0000002801D00C2010BD2078611C03F0E0FAFF2801D01F2010BD03F026FBFF280AD02178621C02F082FE044821780068026B601C904710BD072010BD0000FC0D002007
:404C400010B505F021F9002801D00C2010BD03F0A1FA03480068C06A8047002010BD0000FC0D002070B50D46044610210EF01EFF1021601806460EF019FF33461022194603
:404C8000204605F037F9102130460EF00FFF02202870204605F0DAFF70BD0000FEB504464078217802028006870FE0781143A5780E050002360D0543304601F09FFCEAB226
:404CC0003B4621460096019000F06EFA0006000E14D10B48224600680199436928469847C0B2FF280AD10198EAB24030817EFF23491C81762146019800F00BF9FEBD000059
:404D0000180E00200020704710B5044605F0BCF8002801D00C2010BD2078611C03F058FAFF2808D003F080F9044821780068426B601C904710BD1F2010BD0000FC0D002098
:404D400010B500F0ADF906F05DF8002010BD000010B504460F4802F017FA012817D00D4805222146B030FDF727FD0A490522B0310846C038FDF720FD01F03EF80548802284
:404D80002038C17B1143C17300F0C6F910BD3A2010BD00004416002010B5044600786178E2780843A17811430843217908436179084305D005F052F8002803D00C2010BDEB
:404DC000122010BD204603F0FBFA002010BD000010B5FDF7D1FA03F075FC044805F0EAF803F02CF9012000F003F810BDEC150020F1B586B003A8009005A801902A489F22D4
:404E0000017B114001736846FDF76CFD002849D169460989C90705D0244806990068C2686846904769460989890706D5002839D11F480068816A06988847002832D11D4E41
:404E40000025757075737571F575357675767575B570F570B5713746F5730120D03738731F20F880FF2130467972A0300176457600F056FB04F000FD02F036F900242046F1
:404E8000069902F0E3F8002803D1641C2406240EF5D0FD720749BD72B573C0310D704D704D600D7207B0F0BDD8150020180E0020FC0D00202416002070B505460E46084630
:404EC00003F0DEFB0446304603F0F4FB0121A9400A46224001400A4301D0012070BD002070BD10B50446084603F0E4FB0121A140014201D0012010BD002010BD10B5FEF7B2
:404F0000EDFD032804D102F019FE0120FEF716FE10BDFEB51C4616460F46054602F04EFCA878FFF7E7FD02460190334639460094284600F00DF8002808D1A8780199FFF7C7
:404F4000EBFCFF2C02D138460EF070FEFEBD0000FFB585B005460E980C46FF2810D02B49C00009680A5840180179C0795278814201D9012601E09006860F6846038108E0AE
:404F80006078A1788006860FE0780002014368460181284602F0DCF8070007D021462846079A00F07CFD384609B0F0BD304600F08DFE04AE0346039002AA294600962046AC
:404FC00000F043FC3C20405D002818D0284602F0BFF8012813D0684600890096C0B20190A878231DFF22079902F0E0FE68460089039BC2B2A878079903F0BCFAD3E768467B
:4050000000890021C0B20091E9E70000140E0020F8B5002600253046FFF71AFD07001DD090201149704340186030447F12E0601CFDF77CFACCB23846E040C007C00F07D079
:405040002146304602F0E0FC21463046FFF796FD6D1CEDB20548018AA942E8D8761C3606360ED7D0F8BD0000241600201017002070B50024094D03E0002C01D0002000E0E6
:4050800028464121095C012901D100F0BEFC641C2406240EF0D000F03FF870BD4416002010B502F0CBFF0020FFF7A2FE0EF054FE002010BDF8B5002400F022F9012501280C
:4050C00000D1012404F074FB012801D102200443104F00203E4620360423082203E0002801D0002100E031460979002907D001290BD002290BD0114681402143CCB2401C12
:405100000006000EEBD07C70F8BD2C43F7E71C43F5E700002416002070B5144E0024F07BC00921D03546203503E0002C01D0002000E0284602F002F8012814D0641C24068C
:40514000240EF2D0F07B4006400EF073002403E0002C01D0002000E0284600F056FC641C2406240EF4D0002070BD00002416002010B5FFF79FFF10BD10B5044606F01FF89C
:40518000002802D1601C00F001F810BD1CB500240094062269460194FDF7FFFA002800D1122420461CBD0000F8B5044600201E4617460D46002C12D0002D10D0022E0ED01E
:4051C000032E0CD0002F0AD02179092907D0002905D013494A7F5A21095D8A4207D82089002105F020FC28460EF020FDFF20E18F012905D1002F03D0012E06D0002E04D04B
:40520000374301D10121E187F8BD0021E187069A2A70069A120A6A70AF70E970F8BD0000D815002010B5FCF7D0FF0446FEF756FC012809D0FEF752FC022805D0FBF7D0F939
:405240002046FCF7C6FFEEE72046FCF7C2FF10BD10B50B4681791943817103D08078114603F040F910BD10B582798A43827102D1807803F04BF910BD30B50C4C0220A28A01
:405280000B4B9978002901D0022906D11D785B78EB18282B01D9032002E0032900D101205105490DC0020143A18230BDC0112E40CC0D002000B500F029F8002807D00128E8
:4052C00005D0032801D0042801D0002000BD012000BD014600B50020C90701D000F010F800BD014600B50020C90701D000F008F800BD00000148006870470000C40D0020F0
:4053000001480088000A704720102E400448008B410501D5042070474007800F7047000000102E400148406870470000C40D00207CB50446002568460570200610D5FFF707
:40534000E5FF01280CD101A802F008FC6846007900F0A9FB012002F0ADFA0220FFF708FF600712D50C48017901290ED10571684602F0F4FB6846007800F0CAFB0220FFF7F3
:40538000F7FE00212620FFF761FA044800680169204688477CBD0000D00D0020FC0D002010B501460A4A007800241070FFF7A8FF0128084603D002F06FFF204610BD00F0A8
:4053C000E7F80400F9D1034801210170F5E70000CC0D0020E416002070B50446FFF790FF002801D00C2070BDA27B01211F48002A827801D00A4301E05208520082706279AB
:40540000012A14D0C17849084900C170184D2868016820468847207901280CD06188208804F014F82080207904280FD015E0C2780A43C270EAE72868C168E01D8847E01D52
:4054400002F0AAFF0B48008D208006E02868C168E01D8847E01D02F09FFF074920798870204602F027FF002070BD000024160020FC0D0020D8150020CC0D002008B50178AE
:40548000FFF73EFF814201D10C2008BD002914D0072069460870FFF70DFF012807D10121684600F0E5F8012801D0092008BDFFF7E3FE02F033FF012011E0FFF7FBFE01282B
:4054C00006D1684602F04AFB6846007800F020FB02F01AFFFFF714FF0028FBD10220FFF747FE002008BD000010B501460A4A007800245070FFF704FF0128084603D002F084
:40550000D1FF204610BD00F065F80400F9D1034801214170F5E70000CC0D0020E416002038B568460EF018FB002801D01F2038BD01210098C902018041800025057145714F
:40554000857107214173857302F0B4FE009C202200212046FDF739F925702A460021601CFDF733F9204602F097FE204602F09AFF00980EF05BFB062200210448FDF725F9FF
:4055800002480C388560002038BD0000D00D0020F8B5044600250D4800950078012806D068460EF0D9FA002803D007250CE00C250AE0074E009830602278611C401CFDF758
:4055C000FBF83168207808702846F8BDE4160020C40D0020F8B5044600250D4800954078012806D068460EF0B7FA002803D007250CE00C250AE0074E009870602278611CC5
:40560000401CFDF7D9F87168207808702846F8BDE4160020C40D00200346084800B5834209D8184600F0EAFF002804D00089984201D1012000BD002000BD0000FF0E00000E
:40564000074A9179491C8906890E917138220A4092014907090E1143084302490840704724160020FF0E0000C006C00E70470000F8B507460E4600240D4803E0002C01D062
:40568000002500E005462979002905D0641C2406240EF3D00020F8BD0021204601F0D6FC2E712046FFF7CCFF28813C700120F8BD4416002010B504F073FC0222002100F074
:4056C00003F802F05BFC10BD10B5094B40074907000F090F185A595A40185043C0086421FCF724FF002800D1012080B210BD000058600100F7B53D20405C88B015460C46F3
:40570000002802D02878042802D200200BB0F0BD6946087200262046FFF7E6F9012800D00126204603A938300191009023460327A17E34333246206A04F05CFC02A808994F
:4057400000900B46019120463A4603A9243004F0B1FB02466846007A2870204601F062FC1046D3E7FFB587B00C4605461078694608723D20005D1746002826D00026204669
:40578000FFF7B2F9012800D00126204603A93830019100902346A17E34333246206A04F029FC02A80090291D019120462B1D03A924300A9A04F07EFB02006846007A3880CF
:4057C00002D1204601F02EFC10460BB0F0BDF0B505463C20405C89B016460C4600280CD0307869460873002806D000272046FFF77BF9012803D003E01F2009B0F0BD012751
:4058000003200890204604A93830019100902346E17E34333A46E06904F0ECFB6846007B03A928180290009120462B46019504A92430089A04F072FB02466846007B307083
:40584000204601F0F9FB1046D7E7FFB505463C20405C89B016460C46002810D0084601F077FC01280BD0308869468883002809D000272046FFF738F9012805D005E0002003
:405880000DB0F0BD0220FBE70127204603A93830019100902346E17E34333A46E06904F0A9FB291D2B1D07A8129A6D4607C5204603A924300C9A04F031FB02466846808B91
:4058C0003080204601F0B8FB1046D9E710B518490446484028D0002101231A468A40904221D0491C2029F8D300212046C840C243520618D0400616D0491C1929F5D3A0B27C
:40590000210C020AC3B2884201D193420BD01F21204600F0E0F9182805D8A00E062100F0DAF9022801D2002010BD012010BD0000D6BE898E70B50D460446FFF7D5F8012818
:405940000AD0E87AA97A00020143A07802F0F0F9012808D0002070BD00222421204603F0A5FC242070BD28214C200155204600F049FD282070BD0000002801D0002000E05A
:4059800003484030C07F012800D0002070470000441600200146002049070ED50021084B03E0002901D0002200E01A461279022A04D0491C0906090EF3D0704701207047EE
:4059C000441600200146002049070ED50021084B03E0002901D0002200E01A461279022A04D0491C0906090EF3D07047012070474416002010B5044680346068002803D078
:405A00000EF028F90020606010BD38B50546002000902846FFF768F801281FD1284601F082FB00281AD028792C46C01E40340300FDF70CF9070505111105111411002846AA
:405A400001F08CFB012806D068460EF095F8002805D0012008E060780028FAD038BD2846009903F0B5FA0220607038BD40304170704740308170704770B5054640352878AC
:405A80000C46052904D0002C05D1801E022802D8022003F07BFC2C7070BD0171704792001018C166704770B53C2501F0F9FD040004D020460021433002F0D0F8FF2229464F
:405AC000204600F045FD002C02D0A07801F064FD70BD000010B5002801D0002000E00348002802D0008905F012F810BD4416002010B5002801D0002000E00448002804D0A1
:405B00000179072901D100F09FF810BD4416002010B501F0C5FD002802D0807801F03CFD10BD70B5044605464034A078002805D12078012802D1284601F09CFC60780128EA
:405B400002D12846FFF761FF002070BD70B50546008A00281ED01049F122097B1140C90618D5294640314A8A098A521C4A4392B2D10800D10121540801E0621A94B2A04201
:405B8000FBD9FEF77BFD012804D1298AA878224602F094F970BD0000D815002010B50023054C0B60248A944204D992001018C26E0A60C36610BD000010170020FEB506461D
:405BC0000020009001908020855968460DF0D4FF002801D00720FEBD20213046009FFFF742FB34464034A08AE080608AA080208A2081304603F066FCA88C218A884207D1EB
:405C0000288A618A884203D1688AA18A884203D0F07920210843F071688AA082288A6082A88C2082E98CE182FEF7BAFEE081208AFEF7C6FE60733946304603F0F1F901208C
:405C4000A0700198FEBD000038B5044600200090A079002814D14020015D052901D00E290ED168460DF088FF002809D12046009903F0FAFA03481021428B2046FFF7E8FA3F
:405C800038BD0000D815002010B50446807803F049FC204601F00CFC002010BD10B50B4604460146184602F073FD002802D020460DF0C6FF10BD13B5044601AA11460620C7
:405CC000FDF72EFE6846818861811CBD002800D102207047704770B500231A46491E0CE00446D440E507ED0F541C0646E640F407E40FA54200D05B1C521C8A42F0D3D8B2C3
:405D000070BD0000F8B504462346401D543300909A1EA078911E01F045FF25464035A88A298A8000FCF702FC401E81B2688A884203D96982A07802F06FFC698A8C200151FE
:405D400020460021433001F089FF27480088E88104F026F9E989891C8AB26179FFF7B4FC02F00CF904F01CF92A8A6179FFF7ACFC074602F0F7F8688A002806D01B49088A2A
:405D8000032212021043088202E0002002F038FC1648803801886E8A002E0CD0304648431349FCF7ADFC0004000C01D0401C80B21049488002E00F4800214180288A7043FB
:405DC00081B2A07802F07CFBFF2228374932B9B21346204603F060FBE98AA07802F0A8FAA07801F045FEF8BD80102E40E0112E4071020000D60D002030B50021124C0A46D5
:405E0000A05C002308E0C50701D0491CC9B201290AD840085B1CDBB20028F4D1012903D8521CD2B2052AEBD302290BD207488118C87B0122082B03D29A400243D0B200E0D6
:405E40001043C87330BD0000F4160020241600207FB504468034616805460E46183108226846FCF7A9FC31462031082202A8FCF7A3FC102168460DF019FE6068102108307E
:405E80000DF014FE60682B46083024331022694604F030F87FBD10B504460821FFF7E3F910212046FFF7DFF92079052822D0062820D008281DD12189002004F073FD07201A
:405EC00020712046FEF710FE012819D00E212046FFF7D2FD002158200155204601F06EFB2046FFF787FD2046FFF730FE2046FFF718FE10BD20890122002104F037FDDEE70A
:405F00000521E4E7FFB581B01F4604460821FFF7AAF910212046FFF7A6F92079082803D0092804D0042503E00425012601E009250026204601F0EEF800212046FFF79CFD69
:405F400025712046FFF756FD0398002E02D0012808D00BE001280AD120890022029904F005FD04E02189029804F01CFD01272046002140300176012F07D0204601F01EFBB3
:405F80002046FFF7CEFD05B0F0BD02990173204603F0B8F9054605480121428B2046FFF757F9002DEFD109202071ECE7D815002070B50C460546FEF797FD012809D108210E
:405FC0002846FFF750F90023012221462846FFF799FF70BD10B5044601F09CF82046FFF709FD00212046FFF747FD10BD70B505461A24FEF779FD012809D108212846FFF7F1
:4060000032F90023012221462846FFF77BFF70BD38B505460021684600910DF0ADFD002801D00D2038BD2846009C01F0CBF82146284603F0C3F806480821428B2846FFF73A
:4060400007F906212846FFF717FD002038BD0000D8150020F8B50446002000900E4668460DF08AFD002801D00D20F8BD204604213430009D00F0BDFA8420005908211830B6
:4060800000F0B7FA012E02D1204601F09BF82946204603F00BF806480821428B2046FFF7D7F802212046FFF7E7FC0020F8BD0000D815002010B50446FFF7CAFE032120467E
:4060C000FFF7DAFC204601F079FB10BD10B50021FFF7C0FF10BD000038B504460021684600910DF049FD002811D12046009A01F011F81146204603F06CF805480821428B9F
:406100002046FFF7A5F807212046FFF7B5FC38BDD815002038B504460021684600910DF02BFD002810D12046009903F0E0F807480821428B2046FFF78BF804212046FFF7FB
:406140009BFC204601F03AFB38BD0000D815002010B5FFF7A0FE10BDF8B50446002000900E4668460DF008FD002801D00D20F8BD8420005908212030009D00F03AFA2046B1
:406180000421383000F035FA002E02D1204601F019F82946204602F0B0FF0F480821428B2046FFF755F8204601F07FFA00280AD0204600F027F8002803D009212046FFF796
:4061C0005BFC0020F8BD08212046FFF755FC204601F0F4FAF5E70000D815002010B54021095C082906D0092908D00A2901D100F097F810BD0B21FFF73FFC10BD00F002F86E
:4062000010BD000070B504460079052805D0062803D0082811D00C2070BD03220621204603F044F80F480821428B2046FFF710F811212046FFF720FC12E025460621403507
:406240002973204603F05EF80646AA8A0A20424301212046FEF7FCFF002E01D109202071002070BDD815002038B504460020009068460DF081FC002801D00D2038BD204688
:40628000009D00F0CDF908202071204600F09AFF2946204602F09DFF00213D2001550F212046FFF7E9FB204601F088FA002038BD10B5024600F02EFF10211046FFF7DCFBD0
:4062C00010BD10B50446FEF70FFC012809D04020005D112805D100231A4606212046FFF711FE10BD10B5FFF7D6FD10BD38B504460021684600910DF03FFC00280DD120467C
:40630000009902F0F4FF05480821428B2046FEF79FFF0D212046FFF7AFFB38BDD815002038B504460021684600910DF025FC002801D00D2038BD2046009902F0CDFF064892
:406340000821428B2046FEF783FF0C212046FFF793FB002038BD0000D815002000787047F8B5002569460D70002801D0002400E0204C002C18D0204600F0D5FE002813D033
:40638000207903280BD005280CD026464036B18AA07802F09FF8B078012806D020E00420207120E006202071F8BD0021204602F01FFA274680373868002802D00DF04AFC9C
:4063C0003D600020B0702046FFF7ABFB2079072802D12046FFF7BAFB0221204601F008FA20790428E0D1207A694608703420FEF72DFAF8BD4416002010B54C22115400F038
:4064000052F810BD10B50446FF21FEF72CFF09202071A07802F084F810BD000038B5FF216A461180002801D0002400E00B4C002C12D011460620FDF773FA684601882046BE
:40644000FFF739FC204600F089FE002804D104480068C1692046884738BD000044160020180E002010B504468079002809D022214C200155FF212046FEF7F5FE204600F07D
:4064800012F810BD10B5037902464032002B03D01173092B02D003E0002100E02221117300F001F810BDFEB50446008900270090278120792646403600281AD0012818D09E
:4064C000022816D0002002F061FF09E002AA01A9204602F04BF9002807D101980DF0B0FB204602F06BF90028F0D02046FEF736FAB776254680352868002802D00DF0AAFB56
:406500002F606868002802D00DF0A4FB6F60317B002919D0009800F065F8A078002101F0E1FA2046FFF7C6F8A07801F0EBFBA07801F032F8FF212046FEF795FE0B20FEF785
:4065400017FE00F0A1FEFEBD1F213173E2E70000F8B517460E46054603F00CFD04003CD020460C3001F06AFB2046062200211830FCF72BF92046062200211230FCF725F952
:406580001648224600683946436A28469847074626702846FEF7A8FA012148406070002D10D02889608028464030C1782171002E0FD169796171018AE180418A2181808A66
:4065C000608106E00648008BC005C00F2071002060803946204604F068F9F8BDFC0D002000102E400A4610B50146002004F0A7FA10BD10B50DF036F810BD000000B50146A9
:40660000FFF732F8002801D0002000E00348002802D002898A4200D0002000BD4416002038B5044680346068002806D168460DF0B3FA002801D100986060606838BD000065
:4066400010B5014600F084FD0128887802D0FEF755FA10BD90214843024940186030007F10BD00002416002070B5054604464035A87F012811D1A1789020084A48438018DD
:406680006030067F3046FEF717FC002805D10220A877A078314601F0DFFB70BD2416002010B50C4CA07A002813D0FEF7B1FC0A48027F417F408B00F0FBFD012809D10020DA
:4066C000A07201F069FA05498989090B01D000F0AFFB10BDF416002024160020A0102E4070477047490510B5490F0B00FCF7AEFA060704080C0C0F073E21FFF77DFE10BD83
:406700000821FFF7BFFE10BDFFF7CDFE10BDFFF7A9FE10BDF8B507460025002D01D0002600E0204E01F0F4F93046403044890021418101F0F7F9304600F0F5FC01282BD156
:40674000A00702D52846FFF70BFEE00602D52846FFF764FEA00601D5FEF75AFC600601D500F024FD200602D5284600F01DF8600702D5284600F004FC380402D52846FFF714
:40678000B7F9780402D52846FFF7A4F9E00703D021463046FFF7A6FF6D1C2D062D0EBCD0F8BD000044160020F8B5002801D0002400E0314C002C5DD025464035A878012848
:4067C00058D1FF278820493700593E46002805D02A49097B890601D5878AC68A2046FEF783F901280CD10096E88A2A8A3B46014602F030FEE882A2780146104601F098FD63
:406800002046FEF771F9012834D003F0C9FB2A8A6179FEF759FF009001F0A4FB00983346283081B23A46204602F036FEE98AA07801F07EFD12480188688A124E002810D0D8
:4068400048431149FBF75CFF0004000C01D0401C80B27080A07DC107C90F002001F0A2FE01E000207080288A698A484381B2A07801F026FEF8BD000044160020D81500205C
:4068800060112E40D60D0020710200000149096809680847180E002070B505460088FFF7ADFE04002AD000F03EFC002826D02079092823D0204600F067FC012820D02046EE
:4068C000FEF712F90646E07920210843E071204601F0A6FF002815D0294600F061FF4220005D002810D02325E079DF210840E0712946204602F0E3F8284670BD022070BDC1
:406900003A2070BD072070BD002E05D02046FFF755F90500E8D1EFE70C2070BD70B50E460C2500F0A1FE040012D0002522892946094803F001FDFF2202212046FFF708FE9C
:40694000A07801F0ABF82046FFF7ADFD022000E000203070284670BD0E200000FEB5044600F082FE002801D00C20FEBD022101A8FEF77EFE012859D168460079304F00282F
:4069800001D0002601E03E462036002E4ED000213046FFF771F83546002040356870A8700620FEF7E5FB208A6882228AE189A08902F0B4FD28820246608AFF23A8824933CE
:4069C0000093E18AA08A02F045FDE882288AFDF7F7FF6873288AFDF7E3FFE881184806228778A11DB030FBF7E7FE207901281FD06079E870A01D01F0CFFCFB200740104858
:406A00008770217EC278012917D0FB210A40C2700C4821460068826830469047B178204601F088FA3046FFF72FF9FEBD0920FEBD0020E87004200743E1E704210A43E6E761
:406A400024160020FC0D002070B50D460026194A0146002801D0002401E014462034002C26D0204600F074FB01280AD19020484380186030007FFEF71FFA002801D102F0D8
:406A8000B3FB0D48006881692046884700280CD020464030817EA94202D3491B817600E086762089294603F0BEFF204600F086FE70BD000024160020180E002070B503469F
:406AC0000088FFF79BFD040013D000F02CFB00280FD02079092819D02546997840352973204602F00FFC0646A878012803D0AA8A02E0022070BDEA880A2042430121204662
:406B0000FEF7A6FB002E01D109202071002070BD0EB5002217216B460292198100905A810120029B00990DF035F90EBDF8B518480024807A002822D1164E0025B089000BF1
:406B400022E0204601F0A2F81249A039401807882A462146384600F0ABFB012810D00E480122478305770A4944778A72002D01D0002000E02030002801D000F01FFEF8BD41
:406B8000B089000B641CE4B20028DAD1F8BD0000F4160020A0102E402416002010B50446C0060ED500200B4A03E0002801D0002100E011460979022909D0401C0006000EFA
:406BC000F3D00548006881692046884710BD00F04DF8F6E744160020FC0D002010B50088FFF70CFD040007D04020005D082805D00B2803D00C2010BD022010BD2046FFF749
:406C000001FB002803D009212046FEF735FF002010BD70B503460088FFF7F0FC040008D0254640352878082805D00B2803D00C2070BD022070BD8420005910220830991CB4
:406C4000FBF7BAFD2046FFF703F92878082804D02046FFF765FB002803D00A212046FEF70BFF204600F0AAFD002070BD70B51C4D002801D0002401E02C46203421790229C7
:406C800004D0002901D001F04BFC70BD01225B210A5501F00FF8032020710820FEF768FA00212046FEF7E8FE0121204600F0A0FD204643300121064600F0D0FF0948006842
:406CC000016A30468847024600212046FFF740FCA078FFF7DBFDA87B401CA87370BD000024160020FC0D002010B50C46002121700088FFF783FC03000BD000F014FA0028E9
:406D000007D00948F121007B0840C00603D4112010BD022010BD022020701A8A1889002103F02AFF002010BDD815002070B50088FFF764FC040008D000F0F5F9002804D0E5
:406D4000E079C10903D0002070BD022070BDC1068025002908DA2843E07108480221428B2046FEF775FAEEE7204600F065FA0028ECD1E1792943E17170BD0000D815002083
:406D8000F8B50F46002100910088FFF737FC040012D000F0C8F900280ED0E079410641D4617E02264A07002A08DB8907402500291ADA2843E07135E00220F8BD03F0DAF838
:406DC0000021017021894180A1898180217E4170E189C1803E7005460178134803F06CFB284603F06CFE1DE0204600F0B7F9012806D068460CF0C0FE002803D00720F8BD3D
:406E00002A20F8BDE07900992843E071204602F0A3FA607E0421304360760448428B2046FEF716FA0020F8BD1D040000D81500203EB500220F236C4602922381009101908A
:406E4000628169460EC900200CF0A4FF3EBD0000F8B50F46054600F023FC040033D003202071254600264035EE76E6702046FEF749FF01F049FA0920FEF77AF9A07800F0A8
:406E80002FFF0121204600F0B3FC00212046FEF7F3FD6E70AE703A4600212046FFF758FB0B49887B401C8873A078FFF7EFFC00F0DBFB040006D00648B03001F06DFA204692
:406EC000FEF7E2FEF8BD284601F02AFBF8BD000024160020F8B50446002000902088FFF78DFB05001AD0FDF7FFFD002812D02348007BC00710D0284600F015F900280DD0C1
:406F0000287903280CD004280AD0072808D009282AD103E00C20F8BD1120F8BD0220F8BD2F464037387801281ED02846FFF778FB06001BD00822211DFBF73EFC3046A17851
:406F40002030017261881022090A417221460C311838FBF731FCB878002809D001212846FEF78AFD0098F8BD0D20F8BD0720F8BD284600F07FFA0090F8BD0000D8150020E9
:406F800010B5002801D0002400E00B4C002C11D0214640314878022801D100204870A07DC107C90F002001F0FDFA2046FEF7B9FDFEF75EF810BD00004416002070B5034669
:406FC0000D460088FFF71AFB04000BD000F0ABF8002807D01248F121007B0840C00603D4112070BD022070BD20464030418A008A491C41430804C10C5888884201D2122025
:4070000070BD20822079072802D12046FEF79EFD022028702089002103F0D6FD002070BDD8150020016A491C016204D1817E491C4906490E81767047C169491CC16104D106
:40704000C17E491C4906490EC1767047F0B5064687B003A8009005A800270D460190002E01D0002400E01C4C002C05D06846FBF739FC002803D00BE0022007B0F0BD684662
:407080000089C00704D1902200212046FBF79DFB124829460068826820469047050018D1A6706776277100212046FEF7E5FC204600F030F8204601F07DFB094820825E20FC
:4070C00007550848F121007B084000D001202075E782E8B2D1E7000044160020180E0020B80B0000D815002010B50020074B084AFF2119541418401CC0B221740428F8D3A2
:407100001F2119541018017410BD0000F416002024160020002101628176C161C17620300177417770470079002805D0012803D0022801D001207047002070474030407865
:40714000012803D0022801D000207047012070474030807F002800D00120704740300078002807D0012805D0052803D00E2801D0012070470020704710B5807801F09AFA4D
:40718000002800D0012010BD074A0146927B0020002A07D040314A78022A02D08978012900D10120704700002416002010B500F0F3FC03498989090B01D0FFF739FE10BDE3
:4071C000A0102E4070B5054604464035A87F002825D1FF206075A0789021154A484380186030417F9023491CC9B24177A0785843104B8018DB896030994201D30021417701
:40720000A0789021484380186030467F0677A1783046FDF751FE002802D00120A87770BD0220A877A078314600F016FE70BD0000241600201017002038B5002105460091CB
