:020000040800F2
:1000000050050020CD02000829030008290300083C
:100010002903000829030008290300080000000044
:10002000000000000000000000000000290300089C
:10003000290300080000000029030008D903000874
:1000400029030008290300082903000829030008E0
:1000500029030008290300082903000829030008D0
:1000600029030008290300082903000829030008C0
:1000700029030008290300082903000829030008B0
:1000800029030008290300082903000829030008A0
:100090002903000829030008290300082903000890
:1000A0002903000829030008290300082903000880
:1000B00029030008290300080000000029030008A4
:1000C00029030008000000000000000029030008C8
:1000D00000000000250600082903000800000000B9
:1000E0002903000829030008290300080000000074
:1000F0000000000000000000000000000000000000
:1001000000000000000000005FF808F180B400AFBC
:100110003C4A3C4B9B6943F4805343F00503936195
:10012000394A394B1B6843F440331360364A364B27
:100130001B6823F440231360334B10221A61324AA8
:10014000314B1B6843F4401313602F4A2E4B1B683E
:1001500023F4400313602C4A2B4B1B6843F4000329
:100160001360294A284B1B6823F040731360264A0A
:10017000254B1B6823F040631360234A224B1B6806
:1001800043F000631360204B40221A611E4A1E4B4D
:100190001B6843F0405313601B4A1B4B1B6823F042
:1001A00040431360184A184B1B6843F00043136028
:1001B000164B00229A80154B04221A80134A134BC7
:1001C0001B889BB243F038039BB213800F4A0F4B3E
:1001D0001B889BB243F400739BB213800B4A0B4BFA
:1001E0001B889BB243F480739BB21380074A074B72
:1001F0001B889BB243F040039BB21380BD465DF861
:10020000047B7047001002400008014000300140AC
:1002100080B483B000AF0346FB7100BF0E4B1B8957
:100220009BB203F00203002BF8D00B4BFA7992B289
:100230009A8100BF084B1B899BB203F00103002B7E
:10024000F8D0054B9B899BB2DBB218460C37BD46F4
:100250005DF8047B704700BF0030014080B582B07C
:1002600000AF03460A46FB711346BB71084B4FF4BF
:1002700080121A61FB791846FFF7CAFFBB7918464E
:10028000FFF7C6FF024B10221A610837BD4680BD3A
:100290000008014080B584B000AF0346FB710A4BF3
:1002A0004FF480121A61FB791846FFF7B1FF002066
:1002B000FFF7AEFF0346FB73034B10221A61FB7B73
:1002C00018461037BD4680BD0008014080B582B099
:1002D00000AF104B7B60104B3B6007E03B681A1D82
:1002E0003A607A68111D796012681A603B680B4A9F
:1002F0009342F3D30A480B494FF000028842B8BF3B
:1003000040F8042BFADB00F0BBF800F0F1FB0837F3
:10031000BD4680BD481100080000002000000020FC
:10032000000000204C01002080B400AFFEE700BFB9
:1003300080B483B000AF03463960FB7197F9073092
:10034000002B0BDA0D49FB7903F00F03043B3A68ED
:10035000D2B21201D2B20B441A7609E0084997F9D9
:1003600007303A68D2B21201D2B20B4483F80023AC
:100370000C37BD465DF8047B704700BF00ED00E020
:1003800000E100E080B582B000AF78607B68B3F137
:10039000807F01D3012311E00A4A7B6823F07F4369
:1003A000013B53604FF0FF300F21FFF7C1FF054BBA
:1003B00000229A60034B07221A6000231846083770
:1003C000BD4680BD10E000E080B500AF0148FFF7FA
:1003D000D9FF80BD4019010080B400AF064B1B68F7
:1003E000002B04D0044B1B68013B034A1360BD463D
:1003F0005DF8047B704700BF0000002080B582B02C
:1004000000AF786000F030F8054A7B68136000BFE9
:10041000034B1B68002BFBD10837BD4680BD00BFD6
:100420000000002080B483B000AF03460A46FB7191
:100430001346BB800B4B45F255521A60094AFB79B3
:100440005360084ABB889360064B4AF6AA221A609A
:10045000044B4CF6CC421A600C37BD465DF8047B69
:10046000704700BF0030004080B400AF034B4AF635
:10047000AA221A60BD465DF8047B70470030004038
:1004800080B500AF154A154B1B6843F0010313609C
:100490001249124B5A68124B13404B600F4A0F4BD4
:1004A0001B6823F0847323F4803313600B4A0B4BD7
:1004B0001B6823F480231360084A084B5B6823F40D
:1004C000FE035360054B4FF41F029A6000F00CF8D6
:1004D000044B4FF000629A6080BD00BF00100240E4
:1004E0000000FFF800ED00E080B500AF00F002F87A
:1004F00080BD00BF80B483B000AF00237B600023C9
:100500003B603A4A394B1B6843F480331360374BE6
:100510001B6803F400333B607B6801337B603B68FE
:10052000002B03D17B68B3F5A06FF0D12F4B1B6874
:1005300003F40033002B02D001233B6001E00023D1
:100540003B603B68012B4BD1294A294B1B6843F088
:1005500010031360264A264B1B6823F00303136025
:10056000234A234B1B6843F0020313601F4A1F4BAF
:100570005B6853601D4A1D4B5B6853601B4A1B4BF5
:100580005B6843F480635360184A184B5B6823F43C
:100590007C135360154A154B5B6843F4E8135360B2
:1005A000124A124B1B6843F08073136000BF0F4B5D
:1005B0001B6803F00073002BF9D00C4A0B4B5B68EF
:1005C00023F003035360094A084B5B6843F00203BE
:1005D000536000BF054B5B6803F00C03082BF9D197
:1005E0000C37BD465DF8047B704700BF0010024029
:1005F0000020024080B483B000AF0346FB7108497D
:1006000097F907305B09FA7902F01F02012000FA1E
:1006100002F241F823200C37BD465DF8047B704799
:1006200000E100E080B400AF164B1B889BB203F0E2
:100630002003002B21D0134B9B889BB2DAB2124BC4
:100640001A70124B1B781A460F4B1978104B99549D
:100650000E4B1B78402B06D00C4B1B780133DAB2C3
:100660000A4B1A7002E0094B00221A70064B1B78E5
:100670000D2B02D1074B02221A70BD465DF8047B98
:10068000704700BF003801402200002030000020E9
:10069000340000203301002080B500AF134A134B13
:1006A0009B6943F4804343F005039361104A104B68
:1006B0005B6843F4966353600E4B41F64D521A81CA
:1006C0000C4A0C4B9B899BB243F4005343F00C0340
:1006D0009BB29381074A074B9B899BB243F020034F
:1006E0009BB293812520FFF785FF80BD001002405B
:1006F000000801400038014080B485B000AF0346D7
:10070000FB71FB79194AD35C392B07D8FB79174A5F
:10071000D35C303BDBB21B01FB7306E0FB79134A71
:10072000D35C373BDBB21B01FB73FB790133FB71FD
:10073000FB790E4AD35C392B08D8FB790B4AD25C83
:10074000FB7B1344DBB2303BFB7307E0FB79074ACA
:10075000D25CFB7B1344DBB2373BFB73FB7B18465D
:100760001437BD465DF8047B704700BF340000209D
:1007700090B486B000AF0346FB71174B07F1080435
:10078000186859689A68DB680FC4FB790F2B0BD87F
:10079000124B30221A70FB7907F11802134413F838
:1007A000102C0E4B5A7013E0FB791B09DBB207F1DA
:1007B0001802134413F8102C084B1A70FB7903F03D
:1007C0000F0307F11802134413F8102C034B5A704F
:1007D0001837BD4690BC7047D410000804000020B4
:1007E00080B485B000AF78607B68404AA2FB0323E9
:1007F0009B0CFB60FB683E4A02FB03F37A68D31A4A
:100800007B60FB68DBB23033DAB23A4B1A707B683C
:100810005B09394AA2FB0323DB09FB60FB68374A0B
:1008200002FB03F37A68D31A7B60FB68DBB23033D8
:10083000DAB2304B5A707B68314AA2FB03235B0B60
:10084000FB60FB6842F2107202FB03F37A68D31A72
:100850007B60FB68DBB23033DAB2264B9A707B6880
:10086000284AA2FB03239B09FB60FB684FF47A72C2
:1008700002FB03F37A68D31A7B60FB68DBB2303388
:10088000DAB21C4BDA707B681F4AA2FB03235B09B8
:10089000FB60FB68642202FB03F37A68D31A7B6077
:1008A000FB68DBB23033DAB2124B1A717B68174A3D
:1008B000A2FB0323DB08FB60FA6813469B0013448A
:1008C0005B001A467B689B1A7B60FB68DBB23033A7
:1008D000DAB2084B5A717B68DBB23033DAB2054BBF
:1008E0009A711437BD465DF8047B704783DE1B4365
:1008F00040420F0004000020C55A7C0AA086010077
:100900005917B7D1D34D62101F85EB51CDCCCCCC4C
:1009100080B584B000AF78600B46FB707868FFF755
:100920005FFF0023FB730AE0FB7B154AD35C7B73FC
:100930007B7B302B00D005E0FB7B0133FB73FB7B23
:10094000052BF1D9FB7BBB7308E0BB7B0C4AD35C66
:10095000184600F043F8BB7B0133BB73BB7B062B0F
:10096000F3D9FB78012B03D10648002100F04EF8A3
:10097000FB78022B01D100F06BF81037BD4680BD2B
:1009800004000020E410000880B582B000AF0346E8
:100990000A46FB711346BB71FB791846FFF7E8FE68
:1009A0000C4B1B78184600F019F80A4B5B78184678
:1009B00000F014F8BB79012B03D10748002100F0A7
:1009C00025F8BB79022B01D100F042F80837BD466B
:1009D00080BD00BF04000020E410000880B483B094
:1009E00000AF0346FB7100BF074B1B889BB203F0AF
:1009F0004003002BF8D0044BFA7992B29A800C375E
:100A0000BD465DF8047B70470038014080B584B076
:100A100000AF78600B46FB700023FB7309E0FB7BA3
:100A20007A6813441B781846FFF7D8FFFB7B013325
:100A3000FB73FB7B7A6813441B78002BEFD1FB78A8
:100A4000012B01D100F004F81037BD4680BD00BF76
:100A500080B500AF0D20FFF7C1FF094B4FF00052EA
:100A60001A610A20FFF7CAFC054B4FF400521A61C5
:100A7000044B00221A70044B00221A7080BD00BF84
:100A800000100140300000203301002080B483B00A
:100A900000AF0346FB71084997F907305B09FA7903
:100AA00002F01F02012000FA02F241F823200C3765
:100AB000BD465DF8047B704700E100E080B483B080
:100AC00000AF0346FB71094997F907305B09FA79D2
:100AD00002F01F02012000FA02F2203341F8232025
:100AE0000C37BD465DF8047B704700BF00E100E0B5
:100AF00080B582B000AF00F0E5F8FFF765FCFFF7C6
:100B0000CBFDFFF703FB00F009F9042042F27471FA
:100B1000FFF788FC5E4B10221A615E4B4FF00052CB
:100B20001A616420FFF76AFC5B480121FFF76EFF42
:100B3000584B4FF400521A610120FFF75FFC26204A
:100B4000564900F093F90346002B4ED1534800F06C
:100B500083FA0346002B48D10023BB7100237B712D
:100B60000023FB710CE0FB794D4AD25CFB794B49C9
:100B7000CB5C9A4201D00123BB71FB790133FB713D
:100B8000FB79032BEFD9BB79002B2ED00023FB710F
:100B900008E0FB79FA794149895C414AD154FB79F3
:100BA0000133FB71FB79032BF3D92520FFF786FF77
:100BB0003C480021FFF72AFF0023FB7109E0FB7985
:100BC000364AD35C18460021FFF7DEFEFB7901337D
:100BD000FB71FB79022BF2D9304BDB7818460221EE
:100BE000FFF7D2FE2520FFF751FF2F4B1B78022B7A
:100BF00039D12520FFF762FF0020FFF77DFD034676
:100C00001A462A4B1A602A480021FFF7FFFE274B9D
:100C10001B6818460121FFF77BFE244B1B68DAB2E4
:100C2000244B1A70234B1B78184600F0B3F8034688
:100C30001A46214B1A70204B1B781A461B4B1A6020
:100C40001E480021FFF7E2FE184B1B6818460221E0
:100C5000FFF75EFE1A4B00221A70194B00225A70E1
:100C60002520FFF713FF7B7901337B717B79002B04
:100C70000CD10023FB7106E0FB79094A0021D15415
:100C8000FB790133FB71FB79032BF5D954E700BFE6
:100C90000008014000100140E81000083801002061
:100CA0002C0000201C110008330100202800002027
:100CB00028110008340100204801002038110008E4
:100CC0003400002080B500AFFFF7DAFB104A104B6C
:100CD0009B6943F0140393610E4B00221A600D4A86
:100CE0000C4B5B6803F07F6353600A4A094B1B6837
:100CF00043F003031360074A064B1B6943F00203EA
:100D00001361054A044B5B6843F44013536080BD94
:100D100000100240000801400010014080B500AF03
:100D200000F09CF82A208D2100F01CF82B203E2199
:100D300000F018F82D201E2100F014F82C200021BE
:100D400000F010F82620702100F00CF8152040214A
:100D500000F008F811203D2100F004F800F06AF8D6
:100D600080BD00BF80B582B000AF03460A46FB716C
:100D70001346BB71FB795B00DBB203F07E03FB71B2
:100D8000FA79BB7910461946FFF768FA0837BD466D
:100D900080BD00BF80B584B000AF0346FB71FB7916
:100DA0005B00DBB203F07E03DBB263F07F03DBB2F8
:100DB000FB71FB791846FFF76DFA0346FB73FB7B6B
:100DC00018461037BD4680BD80B582B000AF0346DF
:100DD0000A46FB711346BB71FB791846FFF7DAFF31
:100DE00003461A46BB791343DBB2FA79104619461B
:100DF000FFF7B8FF0837BD4680BD00BF80B582B0A1
:100E000000AF03460A46FB711346BB71FB791846D7
:100E1000FFF7C0FF0346DAB2BB79DB43DBB2134016
:100E2000DBB2DBB2FA7910461946FFF79BFF0837B1
:100E3000BD4680BD80B582B000AF1420FFF7AAFF89
:100E40000346FB71FB7903F00303002B03D114204D
:100E50000321FFF7B9FF0837BD4680BD80B500AF5D
:100E600001200F21FFF77EFF80BD00BF80B586B057
:100E700002AF03463960FB710D200721FFF772FFB7
:100E80003B68FA791A7007F10C0300930C2039685B
:100E900001223B6800F010F80346FB73FB7B002B3C
:100EA00002D1BB89102B01D00223FB73FB7B1846B8
:100EB0001037BD4680BD00BF90B587B000AFB960A8
:100EC0007B600346FB731346BB730223FB75002351
:100ED000BB7500237B75FB7B0C2B07D00E2B00D042
:100EE00009E01223BB7510237B7504E07723BB75E3
:100EF00030237B7500BFBB7D63F07F03DBB2022034
:100F00001946FFF72FFF04208021FFF777FF0A2003
:100F10008021FFF759FF01200021FFF723FF002365
:100F20007B820AE07B8ABA6813441B780920194641
:100F3000FFF718FF7B8A01337B82BB7B9BB27A8AE7
:100F40009A42EFD3FB7B01201946FFF70BFFFB7B97
:100F50000C2B03D10D208021FFF736FF4FF4FA63ED
:100F60007B820420FFF716FF03463B757B8A013B1B
:100F70007B827B8A002B0AD03B7D03F00103002B90
:100F800005D13A7D7B7D1340DBB2002BE9D00D20EB
:100F90008021FFF733FF7B8A002B57D00620FFF715
:100FA000F9FE034603F01B03002B4DD10023FB7514
:100FB0003A7DBB7D1340DBB203F00103002B01D06F
:100FC0000123FB75FB7B0C2B40D10A20FFF7E2FECF
:100FD00003463B750C20FFF7DDFE034603F00703D5
:100FE0007B747B7C002B0BD03B7D013B9BB2DB00F9
:100FF0009AB27B7C9BB213449AB2BB6A1A8005E01A
:101000003B7D9BB2DB009AB2BB6A1A803B7D002B12
:1010100001D101233B753B7D102B01D910233B757A
:1010200000237B820AE07B8A7A68D4180920FFF7C4
:10103000B1FE034623707B8A01337B823B7D9BB2EA
:101040007A8A9A42EFD301E00223FB75FB7D1846B2
:101050001C37BD4690BD00BF80B586B002AF78603A
:1010600000237B730D200021FFF77CFE7B68932219
:101070001A707B68013320221A7007F10A0300936B
:101080000C20796802227B68FFF716FF0346FB738A
:10109000FB7B002B18D10023BB7309E0BB7B7A6874
:1010A00013441A787B7B53407B73BB7B0133BB7348
:1010B000BB7B032BF2D9BB7B7A6813441B787A7B0A
:1010C0009A4201D00223FB73FB7B18461037BD46C2
:1010D00080BD00BF30313233343536373839414284
:1010E000434445462C20000053544D3332463130A2
:1010F00033204D6966617265205243353232205289
:1011000046494420436172642072656164657220BF
:1011100031332E3536204D487A0000004361726429
:101120002049443A200000005243353232206164A5
:1011300072657373203D20005245472076616C75BF
:0811400065203D2000000000C5
:0400000508000000EF
:00000001FF
